{
  "contractName": "Tomatoken",
  "abi": [
    {
      "inputs": [],
      "stateMutability": "nonpayable",
      "type": "constructor"
    },
    {
      "anonymous": false,
      "inputs": [
        {
          "indexed": true,
          "internalType": "address",
          "name": "account",
          "type": "address"
        },
        {
          "indexed": true,
          "internalType": "address",
          "name": "operator",
          "type": "address"
        },
        {
          "indexed": false,
          "internalType": "bool",
          "name": "approved",
          "type": "bool"
        }
      ],
      "name": "ApprovalForAll",
      "type": "event"
    },
    {
      "anonymous": false,
      "inputs": [
        {
          "indexed": true,
          "internalType": "address",
          "name": "buyer",
          "type": "address"
        },
        {
          "indexed": false,
          "internalType": "uint256[]",
          "name": "toMint",
          "type": "uint256[]"
        }
      ],
      "name": "Minted",
      "type": "event"
    },
    {
      "anonymous": false,
      "inputs": [
        {
          "indexed": true,
          "internalType": "address",
          "name": "buyer",
          "type": "address"
        },
        {
          "indexed": false,
          "internalType": "uint256",
          "name": "tomatoId",
          "type": "uint256"
        }
      ],
      "name": "NFTomatoBought",
      "type": "event"
    },
    {
      "anonymous": false,
      "inputs": [
        {
          "indexed": true,
          "internalType": "address",
          "name": "buyer",
          "type": "address"
        },
        {
          "indexed": false,
          "internalType": "uint256",
          "name": "amount",
          "type": "uint256"
        }
      ],
      "name": "TomatokenBought",
      "type": "event"
    },
    {
      "anonymous": false,
      "inputs": [
        {
          "indexed": true,
          "internalType": "address",
          "name": "buyer",
          "type": "address"
        },
        {
          "indexed": false,
          "internalType": "uint256",
          "name": "amount",
          "type": "uint256"
        }
      ],
      "name": "TomatokenRewarded",
      "type": "event"
    },
    {
      "anonymous": false,
      "inputs": [
        {
          "indexed": true,
          "internalType": "address",
          "name": "operator",
          "type": "address"
        },
        {
          "indexed": true,
          "internalType": "address",
          "name": "from",
          "type": "address"
        },
        {
          "indexed": true,
          "internalType": "address",
          "name": "to",
          "type": "address"
        },
        {
          "indexed": false,
          "internalType": "uint256[]",
          "name": "ids",
          "type": "uint256[]"
        },
        {
          "indexed": false,
          "internalType": "uint256[]",
          "name": "values",
          "type": "uint256[]"
        }
      ],
      "name": "TransferBatch",
      "type": "event"
    },
    {
      "anonymous": false,
      "inputs": [
        {
          "indexed": true,
          "internalType": "address",
          "name": "operator",
          "type": "address"
        },
        {
          "indexed": true,
          "internalType": "address",
          "name": "from",
          "type": "address"
        },
        {
          "indexed": true,
          "internalType": "address",
          "name": "to",
          "type": "address"
        },
        {
          "indexed": false,
          "internalType": "uint256",
          "name": "id",
          "type": "uint256"
        },
        {
          "indexed": false,
          "internalType": "uint256",
          "name": "value",
          "type": "uint256"
        }
      ],
      "name": "TransferSingle",
      "type": "event"
    },
    {
      "anonymous": false,
      "inputs": [
        {
          "indexed": false,
          "internalType": "string",
          "name": "value",
          "type": "string"
        },
        {
          "indexed": true,
          "internalType": "uint256",
          "name": "id",
          "type": "uint256"
        }
      ],
      "name": "URI",
      "type": "event"
    },
    {
      "inputs": [],
      "name": "TOMATOKENS",
      "outputs": [
        {
          "internalType": "uint256",
          "name": "",
          "type": "uint256"
        }
      ],
      "stateMutability": "view",
      "type": "function",
      "constant": true
    },
    {
      "inputs": [],
      "name": "TOMATOKEN_PRICE_IN_WEI",
      "outputs": [
        {
          "internalType": "uint256",
          "name": "",
          "type": "uint256"
        }
      ],
      "stateMutability": "view",
      "type": "function",
      "constant": true
    },
    {
      "inputs": [],
      "name": "TOMATOKEN_REWARD",
      "outputs": [
        {
          "internalType": "uint256",
          "name": "",
          "type": "uint256"
        }
      ],
      "stateMutability": "view",
      "type": "function",
      "constant": true
    },
    {
      "inputs": [
        {
          "internalType": "address",
          "name": "account",
          "type": "address"
        },
        {
          "internalType": "uint256",
          "name": "id",
          "type": "uint256"
        }
      ],
      "name": "balanceOf",
      "outputs": [
        {
          "internalType": "uint256",
          "name": "",
          "type": "uint256"
        }
      ],
      "stateMutability": "view",
      "type": "function",
      "constant": true
    },
    {
      "inputs": [
        {
          "internalType": "address[]",
          "name": "accounts",
          "type": "address[]"
        },
        {
          "internalType": "uint256[]",
          "name": "ids",
          "type": "uint256[]"
        }
      ],
      "name": "balanceOfBatch",
      "outputs": [
        {
          "internalType": "uint256[]",
          "name": "",
          "type": "uint256[]"
        }
      ],
      "stateMutability": "view",
      "type": "function",
      "constant": true
    },
    {
      "inputs": [
        {
          "internalType": "address",
          "name": "account",
          "type": "address"
        },
        {
          "internalType": "address",
          "name": "operator",
          "type": "address"
        }
      ],
      "name": "isApprovedForAll",
      "outputs": [
        {
          "internalType": "bool",
          "name": "",
          "type": "bool"
        }
      ],
      "stateMutability": "view",
      "type": "function",
      "constant": true
    },
    {
      "inputs": [
        {
          "internalType": "address",
          "name": "from",
          "type": "address"
        },
        {
          "internalType": "address",
          "name": "to",
          "type": "address"
        },
        {
          "internalType": "uint256[]",
          "name": "ids",
          "type": "uint256[]"
        },
        {
          "internalType": "uint256[]",
          "name": "amounts",
          "type": "uint256[]"
        },
        {
          "internalType": "bytes",
          "name": "data",
          "type": "bytes"
        }
      ],
      "name": "safeBatchTransferFrom",
      "outputs": [],
      "stateMutability": "nonpayable",
      "type": "function"
    },
    {
      "inputs": [
        {
          "internalType": "address",
          "name": "from",
          "type": "address"
        },
        {
          "internalType": "address",
          "name": "to",
          "type": "address"
        },
        {
          "internalType": "uint256",
          "name": "id",
          "type": "uint256"
        },
        {
          "internalType": "uint256",
          "name": "amount",
          "type": "uint256"
        },
        {
          "internalType": "bytes",
          "name": "data",
          "type": "bytes"
        }
      ],
      "name": "safeTransferFrom",
      "outputs": [],
      "stateMutability": "nonpayable",
      "type": "function"
    },
    {
      "inputs": [
        {
          "internalType": "address",
          "name": "operator",
          "type": "address"
        },
        {
          "internalType": "bool",
          "name": "approved",
          "type": "bool"
        }
      ],
      "name": "setApprovalForAll",
      "outputs": [],
      "stateMutability": "nonpayable",
      "type": "function"
    },
    {
      "inputs": [
        {
          "internalType": "bytes4",
          "name": "interfaceId",
          "type": "bytes4"
        }
      ],
      "name": "supportsInterface",
      "outputs": [
        {
          "internalType": "bool",
          "name": "",
          "type": "bool"
        }
      ],
      "stateMutability": "view",
      "type": "function",
      "constant": true
    },
    {
      "inputs": [
        {
          "internalType": "uint256",
          "name": "",
          "type": "uint256"
        }
      ],
      "name": "uri",
      "outputs": [
        {
          "internalType": "string",
          "name": "",
          "type": "string"
        }
      ],
      "stateMutability": "view",
      "type": "function",
      "constant": true
    },
    {
      "inputs": [],
      "name": "buyTokens",
      "outputs": [],
      "stateMutability": "payable",
      "type": "function",
      "payable": true
    },
    {
      "inputs": [],
      "name": "rewardTomatoken",
      "outputs": [],
      "stateMutability": "nonpayable",
      "type": "function"
    },
    {
      "inputs": [
        {
          "internalType": "address",
          "name": "from",
          "type": "address"
        }
      ],
      "name": "getInventoryOf",
      "outputs": [
        {
          "components": [
            {
              "internalType": "uint256",
              "name": "assetId",
              "type": "uint256"
            },
            {
              "internalType": "uint256",
              "name": "amount",
              "type": "uint256"
            }
          ],
          "internalType": "struct Asset[]",
          "name": "",
          "type": "tuple[]"
        }
      ],
      "stateMutability": "view",
      "type": "function",
      "constant": true
    },
    {
      "inputs": [
        {
          "internalType": "uint256",
          "name": "tomatoId",
          "type": "uint256"
        }
      ],
      "name": "buyNFTomato",
      "outputs": [],
      "stateMutability": "payable",
      "type": "function",
      "payable": true
    }
  ],
  "bytecode": "0x60806040523480156200001157600080fd5b5060405180608001604052806060815260200162004538606091396200003d816200035760201b60201c565b50600080605067ffffffffffffffff8111156200005f576200005e62000ce4565b5b6040519080825280602002602001820160405280156200008e5781602001602082028036833780820191505090505b5090506000605067ffffffffffffffff811115620000b157620000b062000ce4565b5b604051908082528060200260200182016040528015620000e05781602001602082028036833780820191505090505b509050620000ed62000c1a565b5b605084146200015457838385815181106200010e576200010d62000d13565b5b602002602001018181525050600182858151811062000132576200013162000d13565b5b60200260200101818152505083806200014b9062000d7b565b945050620000ee565b62000177308484604051806020016040528060008152506200037360201b60201c565b600093505b605084146200023257604051806040016040528085815260200160018152509050600360003073ffffffffffffffffffffffffffffffffffffffff1673ffffffffffffffffffffffffffffffffffffffff168152602001908152602001600020819080600181540180825580915050600190039060005260206000209060020201600090919091909150600082015181600001556020820151816001015550508380620002299062000d7b565b9450506200017c565b3073ffffffffffffffffffffffffffffffffffffffff167f2625f80a8d24fb2b4a5f95be0398a21b27d1ed1677f4a3140fbdd87015b525a4846040516200027a919062000e97565b60405180910390a2620002ae306050670de0b6b3a764000060405180602001604052806000815250620005bd60201b60201c565b604051806040016040528060508152602001670de0b6b3a76400008152509050600360003073ffffffffffffffffffffffffffffffffffffffff1673ffffffffffffffffffffffffffffffffffffffff16815260200190815260200160002081908060018154018082558091505060019003906000526020600020906002020160009091909190915060008201518160000155602082015181600101555050505050506200163e565b80600290805190602001906200036f92919062000c34565b5050565b600073ffffffffffffffffffffffffffffffffffffffff168473ffffffffffffffffffffffffffffffffffffffff161415620003e6576040517f08c379a0000000000000000000000000000000000000000000000000000000008152600401620003dd9062000f42565b60405180910390fd5b81518351146200042d576040517f08c379a0000000000000000000000000000000000000000000000000000000008152600401620004249062000fda565b60405180910390fd5b60006200043f6200078260201b60201c565b905062000458816000878787876200078a60201b60201c565b60005b84518110156200051d578381815181106200047b576200047a62000d13565b5b60200260200101516000808784815181106200049c576200049b62000d13565b5b6020026020010151815260200190815260200160002060008873ffffffffffffffffffffffffffffffffffffffff1673ffffffffffffffffffffffffffffffffffffffff168152602001908152602001600020600082825462000500919062000ffc565b925050819055508080620005149062000d7b565b9150506200045b565b508473ffffffffffffffffffffffffffffffffffffffff16600073ffffffffffffffffffffffffffffffffffffffff168273ffffffffffffffffffffffffffffffffffffffff167f4a39dc06d4c0dbc64b70af90fd698a233a518aa5d07e595d983b8c0526c8f7fb87876040516200059792919062001059565b60405180910390a4620005b6816000878787876200079260201b60201c565b5050505050565b600073ffffffffffffffffffffffffffffffffffffffff168473ffffffffffffffffffffffffffffffffffffffff16141562000630576040517f08c379a0000000000000000000000000000000000000000000000000000000008152600401620006279062000f42565b60405180910390fd5b6000620006426200078260201b60201c565b90506200067b816000876200065d886200098c60201b60201c565b6200066e886200098c60201b60201c565b876200078a60201b60201c565b8260008086815260200190815260200160002060008773ffffffffffffffffffffffffffffffffffffffff1673ffffffffffffffffffffffffffffffffffffffff1681526020019081526020016000206000828254620006dc919062000ffc565b925050819055508473ffffffffffffffffffffffffffffffffffffffff16600073ffffffffffffffffffffffffffffffffffffffff168273ffffffffffffffffffffffffffffffffffffffff167fc3d58168c5ae7397731d063d5bbf3d657854427343f4c083240f7aacaa2d0f6287876040516200075c929190620010a5565b60405180910390a46200077b8160008787878762000a0d60201b60201c565b5050505050565b600033905090565b505050505050565b620007be8473ffffffffffffffffffffffffffffffffffffffff1662000c0760201b62000f2d1760201c565b1562000984578373ffffffffffffffffffffffffffffffffffffffff1663bc197c8187878686866040518663ffffffff1660e01b815260040162000807959493929190620011bb565b6020604051808303816000875af19250505080156200084657506040513d601f19601f8201168201806040525081019062000843919062001299565b60015b620008f85762000855620012d8565b806308c379a01415620008b957506200086d62001333565b806200087a5750620008bb565b806040517f08c379a0000000000000000000000000000000000000000000000000000000008152600401620008b0919062001421565b60405180910390fd5b505b6040517f08c379a0000000000000000000000000000000000000000000000000000000008152600401620008ef90620014bb565b60405180910390fd5b63bc197c8160e01b7bffffffffffffffffffffffffffffffffffffffffffffffffffffffff1916817bffffffffffffffffffffffffffffffffffffffffffffffffffffffff19161462000982576040517f08c379a0000000000000000000000000000000000000000000000000000000008152600401620009799062001553565b60405180910390fd5b505b505050505050565b60606000600167ffffffffffffffff811115620009ae57620009ad62000ce4565b5b604051908082528060200260200182016040528015620009dd5781602001602082028036833780820191505090505b5090508281600081518110620009f857620009f762000d13565b5b60200260200101818152505080915050919050565b62000a398473ffffffffffffffffffffffffffffffffffffffff1662000c0760201b62000f2d1760201c565b1562000bff578373ffffffffffffffffffffffffffffffffffffffff1663f23a6e6187878686866040518663ffffffff1660e01b815260040162000a8295949392919062001575565b6020604051808303816000875af192505050801562000ac157506040513d601f19601f8201168201806040525081019062000abe919062001299565b60015b62000b735762000ad0620012d8565b806308c379a0141562000b34575062000ae862001333565b8062000af5575062000b36565b806040517f08c379a000000000000000000000000000000000000000000000000000000000815260040162000b2b919062001421565b60405180910390fd5b505b6040517f08c379a000000000000000000000000000000000000000000000000000000000815260040162000b6a90620014bb565b60405180910390fd5b63f23a6e6160e01b7bffffffffffffffffffffffffffffffffffffffffffffffffffffffff1916817bffffffffffffffffffffffffffffffffffffffffffffffffffffffff19161462000bfd576040517f08c379a000000000000000000000000000000000000000000000000000000000815260040162000bf49062001553565b60405180910390fd5b505b505050505050565b600080823b905060008111915050919050565b604051806040016040528060008152602001600081525090565b82805462000c429062001608565b90600052602060002090601f01602090048101928262000c66576000855562000cb2565b82601f1062000c8157805160ff191683800117855562000cb2565b8280016001018555821562000cb2579182015b8281111562000cb157825182559160200191906001019062000c94565b5b50905062000cc1919062000cc5565b5090565b5b8082111562000ce057600081600090555060010162000cc6565b5090565b7f4e487b7100000000000000000000000000000000000000000000000000000000600052604160045260246000fd5b7f4e487b7100000000000000000000000000000000000000000000000000000000600052603260045260246000fd5b7f4e487b7100000000000000000000000000000000000000000000000000000000600052601160045260246000fd5b6000819050919050565b600062000d888262000d71565b91507fffffffffffffffffffffffffffffffffffffffffffffffffffffffffffffffff82141562000dbe5762000dbd62000d42565b5b600182019050919050565b600081519050919050565b600082825260208201905092915050565b6000819050602082019050919050565b62000e008162000d71565b82525050565b600062000e14838362000df5565b60208301905092915050565b6000602082019050919050565b600062000e3a8262000dc9565b62000e46818562000dd4565b935062000e538362000de5565b8060005b8381101562000e8a57815162000e6e888262000e06565b975062000e7b8362000e20565b92505060018101905062000e57565b5085935050505092915050565b6000602082019050818103600083015262000eb3818462000e2d565b905092915050565b600082825260208201905092915050565b7f455243313135353a206d696e7420746f20746865207a65726f2061646472657360008201527f7300000000000000000000000000000000000000000000000000000000000000602082015250565b600062000f2a60218362000ebb565b915062000f378262000ecc565b604082019050919050565b6000602082019050818103600083015262000f5d8162000f1b565b9050919050565b7f455243313135353a2069647320616e6420616d6f756e7473206c656e6774682060008201527f6d69736d61746368000000000000000000000000000000000000000000000000602082015250565b600062000fc260288362000ebb565b915062000fcf8262000f64565b604082019050919050565b6000602082019050818103600083015262000ff58162000fb3565b9050919050565b6000620010098262000d71565b9150620010168362000d71565b9250827fffffffffffffffffffffffffffffffffffffffffffffffffffffffffffffffff038211156200104e576200104d62000d42565b5b828201905092915050565b6000604082019050818103600083015262001075818562000e2d565b905081810360208301526200108b818462000e2d565b90509392505050565b6200109f8162000d71565b82525050565b6000604082019050620010bc600083018562001094565b620010cb602083018462001094565b9392505050565b600073ffffffffffffffffffffffffffffffffffffffff82169050919050565b6000620010ff82620010d2565b9050919050565b6200111181620010f2565b82525050565b600081519050919050565b600082825260208201905092915050565b60005b838110156200115357808201518184015260208101905062001136565b8381111562001163576000848401525b50505050565b6000601f19601f8301169050919050565b6000620011878262001117565b62001193818562001122565b9350620011a581856020860162001133565b620011b08162001169565b840191505092915050565b600060a082019050620011d2600083018862001106565b620011e1602083018762001106565b8181036040830152620011f5818662000e2d565b905081810360608301526200120b818562000e2d565b905081810360808301526200122181846200117a565b90509695505050505050565b6000604051905090565b600080fd5b60007fffffffff0000000000000000000000000000000000000000000000000000000082169050919050565b62001273816200123c565b81146200127f57600080fd5b50565b600081519050620012938162001268565b92915050565b600060208284031215620012b257620012b162001237565b5b6000620012c28482850162001282565b91505092915050565b60008160e01c9050919050565b600060033d1115620012fa5760046000803e620012f7600051620012cb565b90505b90565b620013088262001169565b810181811067ffffffffffffffff821117156200132a576200132962000ce4565b5b80604052505050565b600060443d10156200134557620013d2565b6200134f6200122d565b60043d036004823e80513d602482011167ffffffffffffffff8211171562001379575050620013d2565b808201805167ffffffffffffffff811115620013995750505050620013d2565b80602083010160043d038501811115620013b8575050505050620013d2565b620013c982602001850186620012fd565b82955050505050505b90565b600081519050919050565b6000620013ed82620013d5565b620013f9818562000ebb565b93506200140b81856020860162001133565b620014168162001169565b840191505092915050565b600060208201905081810360008301526200143d8184620013e0565b905092915050565b7f455243313135353a207472616e7366657220746f206e6f6e204552433131353560008201527f526563656976657220696d706c656d656e746572000000000000000000000000602082015250565b6000620014a360348362000ebb565b9150620014b08262001445565b604082019050919050565b60006020820190508181036000830152620014d68162001494565b9050919050565b7f455243313135353a204552433131353552656365697665722072656a6563746560008201527f6420746f6b656e73000000000000000000000000000000000000000000000000602082015250565b60006200153b60288362000ebb565b91506200154882620014dd565b604082019050919050565b600060208201905081810360008301526200156e816200152c565b9050919050565b600060a0820190506200158c600083018862001106565b6200159b602083018762001106565b620015aa604083018662001094565b620015b9606083018562001094565b8181036080830152620015cd81846200117a565b90509695505050505050565b7f4e487b7100000000000000000000000000000000000000000000000000000000600052602260045260246000fd5b600060028204905060018216806200162157607f821691505b60208210811415620016385762001637620015d9565b5b50919050565b612eea806200164e6000396000f3fe6080604052600436106100e75760003560e01c806380b460cf1161008a578063d772209211610059578063d7722092146102e6578063d90edc3c14610302578063e985e9c51461032d578063f242432a1461036a576100e7565b806380b460cf14610271578063a22cb46514610288578063aa6cfc81146102b1578063d0febe4c146102dc576100e7565b806316d4e15a116100c657806316d4e15a146101a35780632eb2c2d6146101e05780634e1273f4146102095780636dc7b5ce14610246576100e7565b8062fdd58e146100ec57806301ffc9a7146101295780630e89341c14610166575b600080fd5b3480156100f857600080fd5b50610113600480360381019061010e9190611a22565b610393565b6040516101209190611a71565b60405180910390f35b34801561013557600080fd5b50610150600480360381019061014b9190611ae4565b61045c565b60405161015d9190611b2c565b60405180910390f35b34801561017257600080fd5b5061018d60048036038101906101889190611b47565b61053e565b60405161019a9190611c0d565b60405180910390f35b3480156101af57600080fd5b506101ca60048036038101906101c59190611c2f565b6105d2565b6040516101d79190611d49565b60405180910390f35b3480156101ec57600080fd5b5061020760048036038101906102029190611f68565b610684565b005b34801561021557600080fd5b50610230600480360381019061022b91906120fa565b610725565b60405161023d9190612221565b60405180910390f35b34801561025257600080fd5b5061025b61083e565b6040516102689190611a71565b60405180910390f35b34801561027d57600080fd5b50610286610843565b005b34801561029457600080fd5b506102af60048036038101906102aa919061226f565b6108ff565b005b3480156102bd57600080fd5b506102c6610a80565b6040516102d39190611a71565b60405180910390f35b6102e4610a85565b005b61030060048036038101906102fb9190611b47565b610b5b565b005b34801561030e57600080fd5b50610317610def565b6040516103249190611a71565b60405180910390f35b34801561033957600080fd5b50610354600480360381019061034f91906122af565b610df8565b6040516103619190611b2c565b60405180910390f35b34801561037657600080fd5b50610391600480360381019061038c91906122ef565b610e8c565b005b60008073ffffffffffffffffffffffffffffffffffffffff168373ffffffffffffffffffffffffffffffffffffffff161415610404576040517f08c379a00000000000000000000000000000000000000000000000000000000081526004016103fb906123f8565b60405180910390fd5b60008083815260200190815260200160002060008473ffffffffffffffffffffffffffffffffffffffff1673ffffffffffffffffffffffffffffffffffffffff16815260200190815260200160002054905092915050565b60007fd9b67a26000000000000000000000000000000000000000000000000000000007bffffffffffffffffffffffffffffffffffffffffffffffffffffffff1916827bffffffffffffffffffffffffffffffffffffffffffffffffffffffff1916148061052757507f0e89341c000000000000000000000000000000000000000000000000000000007bffffffffffffffffffffffffffffffffffffffffffffffffffffffff1916827bffffffffffffffffffffffffffffffffffffffffffffffffffffffff1916145b80610537575061053682610f40565b5b9050919050565b60606002805461054d90612447565b80601f016020809104026020016040519081016040528092919081815260200182805461057990612447565b80156105c65780601f1061059b576101008083540402835291602001916105c6565b820191906000526020600020905b8154815290600101906020018083116105a957829003601f168201915b50505050509050919050565b6060600360008373ffffffffffffffffffffffffffffffffffffffff1673ffffffffffffffffffffffffffffffffffffffff168152602001908152602001600020805480602002602001604051908101604052809291908181526020016000905b8282101561067957838290600052602060002090600202016040518060400160405290816000820154815260200160018201548152505081526020019060010190610633565b505050509050919050565b61068c610faa565b73ffffffffffffffffffffffffffffffffffffffff168573ffffffffffffffffffffffffffffffffffffffff1614806106d257506106d1856106cc610faa565b610df8565b5b610711576040517f08c379a0000000000000000000000000000000000000000000000000000000008152600401610708906124eb565b60405180910390fd5b61071e8585858585610fb2565b5050505050565b6060815183511461076b576040517f08c379a00000000000000000000000000000000000000000000000000000000081526004016107629061257d565b60405180910390fd5b6000835167ffffffffffffffff81111561078857610787611d70565b5b6040519080825280602002602001820160405280156107b65781602001602082028036833780820191505090505b50905060005b8451811015610833576108038582815181106107db576107da61259d565b5b60200260200101518583815181106107f6576107f561259d565b5b6020026020010151610393565b8282815181106108165761081561259d565b5b6020026020010181815250508061082c906125fb565b90506107bc565b508091505092915050565b605081565b6000610850306050610393565b11610890576040517f08c379a0000000000000000000000000000000000000000000000000000000008152600401610887906126b6565b60405180910390fd5b6108ae303360506001604051806020016040528060008152506112c6565b3373ffffffffffffffffffffffffffffffffffffffff167f7042bc26e7793668a149cea810244564d4823d6838ec775dc80d1fde6a0e723860016040516108f59190611a71565b60405180910390a2565b8173ffffffffffffffffffffffffffffffffffffffff1661091e610faa565b73ffffffffffffffffffffffffffffffffffffffff161415610975576040517f08c379a000000000000000000000000000000000000000000000000000000000815260040161096c90612748565b60405180910390fd5b8060016000610982610faa565b73ffffffffffffffffffffffffffffffffffffffff1673ffffffffffffffffffffffffffffffffffffffff16815260200190815260200160002060008473ffffffffffffffffffffffffffffffffffffffff1673ffffffffffffffffffffffffffffffffffffffff16815260200190815260200160002060006101000a81548160ff0219169083151502179055508173ffffffffffffffffffffffffffffffffffffffff16610a2f610faa565b73ffffffffffffffffffffffffffffffffffffffff167f17307eab39ab6107e8899845ad3d59bd9653f200f220920489ca2b5937696c3183604051610a749190611b2c565b60405180910390a35050565b600181565b600064e8d4a5100034610a989190612797565b14610ad8576040517f08c379a0000000000000000000000000000000000000000000000000000000008152600401610acf90612814565b60405180910390fd5b600064e8d4a5100034610aeb9190612834565b9050610b0a3033605084604051806020016040528060008152506112c6565b3373ffffffffffffffffffffffffffffffffffffffff167f5cb018552b2aca4b312acd5f7daa7f817d22471c9d80f0f727496bce2bbdd43782604051610b509190611a71565b60405180910390a250565b670de0b6b3a76400003414610ba5576040517f08c379a0000000000000000000000000000000000000000000000000000000008152600401610b9c90612814565b60405180910390fd5b610bc23033836001604051806020016040528060008152506112c6565b6000604051806040016040528083815260200160018152509050600360003373ffffffffffffffffffffffffffffffffffffffff1673ffffffffffffffffffffffffffffffffffffffff1681526020019081526020016000208190806001815401808255809150506001900390600052602060002090600202016000909190919091506000820151816000015560208201518160010155505060005b600360003073ffffffffffffffffffffffffffffffffffffffff1673ffffffffffffffffffffffffffffffffffffffff16815260200190815260200160002080549050811015610d9c5782600360003073ffffffffffffffffffffffffffffffffffffffff1673ffffffffffffffffffffffffffffffffffffffff1681526020019081526020016000208281548110610cfa57610cf961259d565b5b9060005260206000209060020201600001541415610d8957600360003073ffffffffffffffffffffffffffffffffffffffff1673ffffffffffffffffffffffffffffffffffffffff1681526020019081526020016000208181548110610d6357610d6261259d565b5b906000526020600020906002020160008082016000905560018201600090555050610d9c565b8080610d94906125fb565b915050610c5e565b503373ffffffffffffffffffffffffffffffffffffffff167f6e68b1469645e52ff7b3b25de4a4a089b03067f1f646322700f0f8876bd0b4a983604051610de39190611a71565b60405180910390a25050565b64e8d4a5100081565b6000600160008473ffffffffffffffffffffffffffffffffffffffff1673ffffffffffffffffffffffffffffffffffffffff16815260200190815260200160002060008373ffffffffffffffffffffffffffffffffffffffff1673ffffffffffffffffffffffffffffffffffffffff16815260200190815260200160002060009054906101000a900460ff16905092915050565b610e94610faa565b73ffffffffffffffffffffffffffffffffffffffff168573ffffffffffffffffffffffffffffffffffffffff161480610eda5750610ed985610ed4610faa565b610df8565b5b610f19576040517f08c379a0000000000000000000000000000000000000000000000000000000008152600401610f10906128d7565b60405180910390fd5b610f2685858585856112c6565b5050505050565b600080823b905060008111915050919050565b60007f01ffc9a7000000000000000000000000000000000000000000000000000000007bffffffffffffffffffffffffffffffffffffffffffffffffffffffff1916827bffffffffffffffffffffffffffffffffffffffffffffffffffffffff1916149050919050565b600033905090565b8151835114610ff6576040517f08c379a0000000000000000000000000000000000000000000000000000000008152600401610fed90612969565b60405180910390fd5b600073ffffffffffffffffffffffffffffffffffffffff168473ffffffffffffffffffffffffffffffffffffffff161415611066576040517f08c379a000000000000000000000000000000000000000000000000000000000815260040161105d906129fb565b60405180910390fd5b6000611070610faa565b9050611080818787878787611548565b60005b84518110156112315760008582815181106110a1576110a061259d565b5b6020026020010151905060008583815181106110c0576110bf61259d565b5b60200260200101519050600080600084815260200190815260200160002060008b73ffffffffffffffffffffffffffffffffffffffff1673ffffffffffffffffffffffffffffffffffffffff16815260200190815260200160002054905081811015611161576040517f08c379a000000000000000000000000000000000000000000000000000000000815260040161115890612a8d565b60405180910390fd5b81810360008085815260200190815260200160002060008c73ffffffffffffffffffffffffffffffffffffffff1673ffffffffffffffffffffffffffffffffffffffff168152602001908152602001600020819055508160008085815260200190815260200160002060008b73ffffffffffffffffffffffffffffffffffffffff1673ffffffffffffffffffffffffffffffffffffffff16815260200190815260200160002060008282546112169190612aad565b925050819055505050508061122a906125fb565b9050611083565b508473ffffffffffffffffffffffffffffffffffffffff168673ffffffffffffffffffffffffffffffffffffffff168273ffffffffffffffffffffffffffffffffffffffff167f4a39dc06d4c0dbc64b70af90fd698a233a518aa5d07e595d983b8c0526c8f7fb87876040516112a8929190612b03565b60405180910390a46112be818787878787611550565b505050505050565b600073ffffffffffffffffffffffffffffffffffffffff168473ffffffffffffffffffffffffffffffffffffffff161415611336576040517f08c379a000000000000000000000000000000000000000000000000000000000815260040161132d906129fb565b60405180910390fd5b6000611340610faa565b905061136081878761135188611728565b61135a88611728565b87611548565b600080600086815260200190815260200160002060008873ffffffffffffffffffffffffffffffffffffffff1673ffffffffffffffffffffffffffffffffffffffff168152602001908152602001600020549050838110156113f7576040517f08c379a00000000000000000000000000000000000000000000000000000000081526004016113ee90612a8d565b60405180910390fd5b83810360008087815260200190815260200160002060008973ffffffffffffffffffffffffffffffffffffffff1673ffffffffffffffffffffffffffffffffffffffff168152602001908152602001600020819055508360008087815260200190815260200160002060008873ffffffffffffffffffffffffffffffffffffffff1673ffffffffffffffffffffffffffffffffffffffff16815260200190815260200160002060008282546114ac9190612aad565b925050819055508573ffffffffffffffffffffffffffffffffffffffff168773ffffffffffffffffffffffffffffffffffffffff168373ffffffffffffffffffffffffffffffffffffffff167fc3d58168c5ae7397731d063d5bbf3d657854427343f4c083240f7aacaa2d0f628888604051611529929190612b3a565b60405180910390a461153f8288888888886117a2565b50505050505050565b505050505050565b61156f8473ffffffffffffffffffffffffffffffffffffffff16610f2d565b15611720578373ffffffffffffffffffffffffffffffffffffffff1663bc197c8187878686866040518663ffffffff1660e01b81526004016115b5959493929190612bc7565b6020604051808303816000875af19250505080156115f157506040513d601f19601f820116820180604052508101906115ee9190612c44565b60015b611697576115fd612c7e565b806308c379a0141561165a5750611612612ca0565b8061161d575061165c565b806040517f08c379a00000000000000000000000000000000000000000000000000000000081526004016116519190611c0d565b60405180910390fd5b505b6040517f08c379a000000000000000000000000000000000000000000000000000000000815260040161168e90612da8565b60405180910390fd5b63bc197c8160e01b7bffffffffffffffffffffffffffffffffffffffffffffffffffffffff1916817bffffffffffffffffffffffffffffffffffffffffffffffffffffffff19161461171e576040517f08c379a000000000000000000000000000000000000000000000000000000000815260040161171590612e3a565b60405180910390fd5b505b505050505050565b60606000600167ffffffffffffffff81111561174757611746611d70565b5b6040519080825280602002602001820160405280156117755781602001602082028036833780820191505090505b509050828160008151811061178d5761178c61259d565b5b60200260200101818152505080915050919050565b6117c18473ffffffffffffffffffffffffffffffffffffffff16610f2d565b15611972578373ffffffffffffffffffffffffffffffffffffffff1663f23a6e6187878686866040518663ffffffff1660e01b8152600401611807959493929190612e5a565b6020604051808303816000875af192505050801561184357506040513d601f19601f820116820180604052508101906118409190612c44565b60015b6118e95761184f612c7e565b806308c379a014156118ac5750611864612ca0565b8061186f57506118ae565b806040517f08c379a00000000000000000000000000000000000000000000000000000000081526004016118a39190611c0d565b60405180910390fd5b505b6040517f08c379a00000000000000000000000000000000000000000000000000000000081526004016118e090612da8565b60405180910390fd5b63f23a6e6160e01b7bffffffffffffffffffffffffffffffffffffffffffffffffffffffff1916817bffffffffffffffffffffffffffffffffffffffffffffffffffffffff191614611970576040517f08c379a000000000000000000000000000000000000000000000000000000000815260040161196790612e3a565b60405180910390fd5b505b505050505050565b6000604051905090565b600080fd5b600080fd5b600073ffffffffffffffffffffffffffffffffffffffff82169050919050565b60006119b98261198e565b9050919050565b6119c9816119ae565b81146119d457600080fd5b50565b6000813590506119e6816119c0565b92915050565b6000819050919050565b6119ff816119ec565b8114611a0a57600080fd5b50565b600081359050611a1c816119f6565b92915050565b60008060408385031215611a3957611a38611984565b5b6000611a47858286016119d7565b9250506020611a5885828601611a0d565b9150509250929050565b611a6b816119ec565b82525050565b6000602082019050611a866000830184611a62565b92915050565b60007fffffffff0000000000000000000000000000000000000000000000000000000082169050919050565b611ac181611a8c565b8114611acc57600080fd5b50565b600081359050611ade81611ab8565b92915050565b600060208284031215611afa57611af9611984565b5b6000611b0884828501611acf565b91505092915050565b60008115159050919050565b611b2681611b11565b82525050565b6000602082019050611b416000830184611b1d565b92915050565b600060208284031215611b5d57611b5c611984565b5b6000611b6b84828501611a0d565b91505092915050565b600081519050919050565b600082825260208201905092915050565b60005b83811015611bae578082015181840152602081019050611b93565b83811115611bbd576000848401525b50505050565b6000601f19601f8301169050919050565b6000611bdf82611b74565b611be98185611b7f565b9350611bf9818560208601611b90565b611c0281611bc3565b840191505092915050565b60006020820190508181036000830152611c278184611bd4565b905092915050565b600060208284031215611c4557611c44611984565b5b6000611c53848285016119d7565b91505092915050565b600081519050919050565b600082825260208201905092915050565b6000819050602082019050919050565b611c91816119ec565b82525050565b604082016000820151611cad6000850182611c88565b506020820151611cc06020850182611c88565b50505050565b6000611cd28383611c97565b60408301905092915050565b6000602082019050919050565b6000611cf682611c5c565b611d008185611c67565b9350611d0b83611c78565b8060005b83811015611d3c578151611d238882611cc6565b9750611d2e83611cde565b925050600181019050611d0f565b5085935050505092915050565b60006020820190508181036000830152611d638184611ceb565b905092915050565b600080fd5b7f4e487b7100000000000000000000000000000000000000000000000000000000600052604160045260246000fd5b611da882611bc3565b810181811067ffffffffffffffff82111715611dc757611dc6611d70565b5b80604052505050565b6000611dda61197a565b9050611de68282611d9f565b919050565b600067ffffffffffffffff821115611e0657611e05611d70565b5b602082029050602081019050919050565b600080fd5b6000611e2f611e2a84611deb565b611dd0565b90508083825260208201905060208402830185811115611e5257611e51611e17565b5b835b81811015611e7b5780611e678882611a0d565b845260208401935050602081019050611e54565b5050509392505050565b600082601f830112611e9a57611e99611d6b565b5b8135611eaa848260208601611e1c565b91505092915050565b600080fd5b600067ffffffffffffffff821115611ed357611ed2611d70565b5b611edc82611bc3565b9050602081019050919050565b82818337600083830152505050565b6000611f0b611f0684611eb8565b611dd0565b905082815260208101848484011115611f2757611f26611eb3565b5b611f32848285611ee9565b509392505050565b600082601f830112611f4f57611f4e611d6b565b5b8135611f5f848260208601611ef8565b91505092915050565b600080600080600060a08688031215611f8457611f83611984565b5b6000611f92888289016119d7565b9550506020611fa3888289016119d7565b945050604086013567ffffffffffffffff811115611fc457611fc3611989565b5b611fd088828901611e85565b935050606086013567ffffffffffffffff811115611ff157611ff0611989565b5b611ffd88828901611e85565b925050608086013567ffffffffffffffff81111561201e5761201d611989565b5b61202a88828901611f3a565b9150509295509295909350565b600067ffffffffffffffff82111561205257612051611d70565b5b602082029050602081019050919050565b600061207661207184612037565b611dd0565b9050808382526020820190506020840283018581111561209957612098611e17565b5b835b818110156120c257806120ae88826119d7565b84526020840193505060208101905061209b565b5050509392505050565b600082601f8301126120e1576120e0611d6b565b5b81356120f1848260208601612063565b91505092915050565b6000806040838503121561211157612110611984565b5b600083013567ffffffffffffffff81111561212f5761212e611989565b5b61213b858286016120cc565b925050602083013567ffffffffffffffff81111561215c5761215b611989565b5b61216885828601611e85565b9150509250929050565b600081519050919050565b600082825260208201905092915050565b6000819050602082019050919050565b60006121aa8383611c88565b60208301905092915050565b6000602082019050919050565b60006121ce82612172565b6121d8818561217d565b93506121e38361218e565b8060005b838110156122145781516121fb888261219e565b9750612206836121b6565b9250506001810190506121e7565b5085935050505092915050565b6000602082019050818103600083015261223b81846121c3565b905092915050565b61224c81611b11565b811461225757600080fd5b50565b60008135905061226981612243565b92915050565b6000806040838503121561228657612285611984565b5b6000612294858286016119d7565b92505060206122a58582860161225a565b9150509250929050565b600080604083850312156122c6576122c5611984565b5b60006122d4858286016119d7565b92505060206122e5858286016119d7565b9150509250929050565b600080600080600060a0868803121561230b5761230a611984565b5b6000612319888289016119d7565b955050602061232a888289016119d7565b945050604061233b88828901611a0d565b935050606061234c88828901611a0d565b925050608086013567ffffffffffffffff81111561236d5761236c611989565b5b61237988828901611f3a565b9150509295509295909350565b7f455243313135353a2062616c616e636520717565727920666f7220746865207a60008201527f65726f2061646472657373000000000000000000000000000000000000000000602082015250565b60006123e2602b83611b7f565b91506123ed82612386565b604082019050919050565b60006020820190508181036000830152612411816123d5565b9050919050565b7f4e487b7100000000000000000000000000000000000000000000000000000000600052602260045260246000fd5b6000600282049050600182168061245f57607f821691505b6020821081141561247357612472612418565b5b50919050565b7f455243313135353a207472616e736665722063616c6c6572206973206e6f742060008201527f6f776e6572206e6f7220617070726f7665640000000000000000000000000000602082015250565b60006124d5603283611b7f565b91506124e082612479565b604082019050919050565b60006020820190508181036000830152612504816124c8565b9050919050565b7f455243313135353a206163636f756e747320616e6420696473206c656e67746860008201527f206d69736d617463680000000000000000000000000000000000000000000000602082015250565b6000612567602983611b7f565b91506125728261250b565b604082019050919050565b600060208201905081810360008301526125968161255a565b9050919050565b7f4e487b7100000000000000000000000000000000000000000000000000000000600052603260045260246000fd5b7f4e487b7100000000000000000000000000000000000000000000000000000000600052601160045260246000fd5b6000612606826119ec565b91507fffffffffffffffffffffffffffffffffffffffffffffffffffffffffffffffff821415612639576126386125cc565b5b600182019050919050565b7f5468657265206973206e6f206d6f726520546f6d61746f6b656e20746f20726560008201527f7761726400000000000000000000000000000000000000000000000000000000602082015250565b60006126a0602483611b7f565b91506126ab82612644565b604082019050919050565b600060208201905081810360008301526126cf81612693565b9050919050565b7f455243313135353a2073657474696e6720617070726f76616c2073746174757360008201527f20666f722073656c660000000000000000000000000000000000000000000000602082015250565b6000612732602983611b7f565b915061273d826126d6565b604082019050919050565b6000602082019050818103600083015261276181612725565b9050919050565b7f4e487b7100000000000000000000000000000000000000000000000000000000600052601260045260246000fd5b60006127a2826119ec565b91506127ad836119ec565b9250826127bd576127bc612768565b5b828206905092915050565b7f4f6e6c7920616363657074696e67207468652066756c6c207072696365000000600082015250565b60006127fe601d83611b7f565b9150612809826127c8565b602082019050919050565b6000602082019050818103600083015261282d816127f1565b9050919050565b600061283f826119ec565b915061284a836119ec565b92508261285a57612859612768565b5b828204905092915050565b7f455243313135353a2063616c6c6572206973206e6f74206f776e6572206e6f7260008201527f20617070726f7665640000000000000000000000000000000000000000000000602082015250565b60006128c1602983611b7f565b91506128cc82612865565b604082019050919050565b600060208201905081810360008301526128f0816128b4565b9050919050565b7f455243313135353a2069647320616e6420616d6f756e7473206c656e6774682060008201527f6d69736d61746368000000000000000000000000000000000000000000000000602082015250565b6000612953602883611b7f565b915061295e826128f7565b604082019050919050565b6000602082019050818103600083015261298281612946565b9050919050565b7f455243313135353a207472616e7366657220746f20746865207a65726f20616460008201527f6472657373000000000000000000000000000000000000000000000000000000602082015250565b60006129e5602583611b7f565b91506129f082612989565b604082019050919050565b60006020820190508181036000830152612a14816129d8565b9050919050565b7f455243313135353a20696e73756666696369656e742062616c616e636520666f60008201527f72207472616e7366657200000000000000000000000000000000000000000000602082015250565b6000612a77602a83611b7f565b9150612a8282612a1b565b604082019050919050565b60006020820190508181036000830152612aa681612a6a565b9050919050565b6000612ab8826119ec565b9150612ac3836119ec565b9250827fffffffffffffffffffffffffffffffffffffffffffffffffffffffffffffffff03821115612af857612af76125cc565b5b828201905092915050565b60006040820190508181036000830152612b1d81856121c3565b90508181036020830152612b3181846121c3565b90509392505050565b6000604082019050612b4f6000830185611a62565b612b5c6020830184611a62565b9392505050565b612b6c816119ae565b82525050565b600081519050919050565b600082825260208201905092915050565b6000612b9982612b72565b612ba38185612b7d565b9350612bb3818560208601611b90565b612bbc81611bc3565b840191505092915050565b600060a082019050612bdc6000830188612b63565b612be96020830187612b63565b8181036040830152612bfb81866121c3565b90508181036060830152612c0f81856121c3565b90508181036080830152612c238184612b8e565b90509695505050505050565b600081519050612c3e81611ab8565b92915050565b600060208284031215612c5a57612c59611984565b5b6000612c6884828501612c2f565b91505092915050565b60008160e01c9050919050565b600060033d1115612c9d5760046000803e612c9a600051612c71565b90505b90565b600060443d1015612cb057612d33565b612cb861197a565b60043d036004823e80513d602482011167ffffffffffffffff82111715612ce0575050612d33565b808201805167ffffffffffffffff811115612cfe5750505050612d33565b80602083010160043d038501811115612d1b575050505050612d33565b612d2a82602001850186611d9f565b82955050505050505b90565b7f455243313135353a207472616e7366657220746f206e6f6e204552433131353560008201527f526563656976657220696d706c656d656e746572000000000000000000000000602082015250565b6000612d92603483611b7f565b9150612d9d82612d36565b604082019050919050565b60006020820190508181036000830152612dc181612d85565b9050919050565b7f455243313135353a204552433131353552656365697665722072656a6563746560008201527f6420746f6b656e73000000000000000000000000000000000000000000000000602082015250565b6000612e24602883611b7f565b9150612e2f82612dc8565b604082019050919050565b60006020820190508181036000830152612e5381612e17565b9050919050565b600060a082019050612e6f6000830188612b63565b612e7c6020830187612b63565b612e896040830186611a62565b612e966060830185611a62565b8181036080830152612ea88184612b8e565b9050969550505050505056fea26469706673582212202c1b5cbc4efe2274960147ed16e9de312d6eb199f41b8c5e2eb596e659951dc964736f6c634300080a003368747470733a2f2f62616679626569657164326975367471326176787368766736706a6262356d7974797970667778653679376f69353732757435756b766e79376e712e697066732e647765622e6c696e6b2f6d657461646174612f7b69647d",
  "immutableReferences": {},
  "source": "pragma solidity ^0.8.0;\n\nimport \"@openzeppelin/contracts/token/ERC1155/ERC1155.sol\";\n\nstruct Asset {\n\tuint assetId;\n\tuint amount;\n}\n\ncontract Tomatoken is ERC1155 {\n\n\tuint public constant TOMATOKENS = 80;\n\tuint public constant TOMATOKEN_PRICE_IN_WEI = 10**12;\n\tuint public constant TOMATOKEN_REWARD = 1;\n\tuint constant NFTomatoes = 80;\n\t// mapping(uint256 => mapping(address => uint256)) private _balances;\n\tmapping(address => Asset[]) private NFTownership;\n\n\tevent TomatokenBought(address indexed buyer, uint amount);\n\tevent TomatokenRewarded(address indexed buyer, uint amount);\n\tevent Minted(address indexed buyer, uint[] toMint);\n\tevent NFTomatoBought(address indexed buyer, uint tomatoId);\n\n\tconstructor() ERC1155(\"https://bafybeieqd2iu6tq2avxshvg6pjbb5mytyypfwxe6y7oi572ut5ukvny7nq.ipfs.dweb.link/metadata/{id}\") {\n\t\t// owner = msg.sender;\n\t\tuint actual = 0;\n\t\tuint[] memory toMint = new uint[](NFTomatoes);\n\t\tuint[] memory amounts= new uint[](NFTomatoes);\n\t\tAsset memory newAsset;\n\n\n\t\t// Minting the NFTomatoes\n\t\twhile(actual != NFTomatoes) {\n\t\t\ttoMint[actual] = actual;\n\t\t\tamounts[actual] = 1;\n\t\t\tactual++;\n\t\t}\n\t\t_mintBatch(address(this), toMint, amounts, \"\");\n\t\tactual = 0;\n\t\twhile(actual != NFTomatoes) {\n\t\t\tnewAsset = Asset(actual, 1);\n\t\t\tNFTownership[address(this)].push(newAsset);\n\t\t\tactual++;\n\t\t}\n\n\t\temit Minted(address(this), toMint);\n\n\t\t// Minting the Tomatoken\n\t\t_mint(address(this), TOMATOKENS, 10**18, \"\");\n\t\tnewAsset = Asset(NFTomatoes, 10**18);\n\t\tNFTownership[address(this)].push(newAsset);\n\t}\n\n\tfunction buyTokens() public payable {\n\t\trequire(uint(msg.value) % TOMATOKEN_PRICE_IN_WEI == 0, \"Only accepting the full price\");\n\t\tuint amountOfTomatokens = uint(msg.value) / TOMATOKEN_PRICE_IN_WEI;\n\t\t_safeTransferFrom(address(this),  msg.sender, TOMATOKENS, amountOfTomatokens, \"\");\n\t\temit TomatokenBought(msg.sender, amountOfTomatokens);\n\t}\n\n\tfunction rewardTomatoken() public {\n\t\trequire(balanceOf(address(this), TOMATOKENS) > 0, \"There is no more Tomatoken to reward\");\n\t\t_safeTransferFrom(address(this), msg.sender, TOMATOKENS, TOMATOKEN_REWARD, \"\");\n\t\temit TomatokenRewarded(msg.sender, TOMATOKEN_REWARD);\n\t}\n\n\tfunction getInventoryOf(address from) public view returns(Asset[] memory) {\n\t\treturn NFTownership[from];\n\t}\n\n\tfunction buyNFTomato(uint tomatoId) public payable {\n\t\trequire(uint(msg.value) == 1 ether, \"Only accepting the full price\");\n\t\t_safeTransferFrom(address(this), msg.sender, tomatoId, 1, \"\");\n\t\tAsset memory newAsset = Asset(tomatoId, 1);\n\t\tNFTownership[msg.sender].push(newAsset);\n\t\tfor (uint i; i < NFTownership[address(this)].length; i++) {\n\t\t\tif (NFTownership[address(this)][i].assetId == tomatoId) {\n\t\t\t\tdelete NFTownership[address(this)][i];\n\t\t\t\tbreak;\n\t\t\t}\n\t\t}\n\t\temit NFTomatoBought(msg.sender, tomatoId);\n\t}\n}\n\n\n",
  "sourcePath": "/Users/lucha/code/tomatoken/contracts/Tomatoken.sol",
  "compiler": {
    "name": "solc",
    "version": "0.8.10+commit.fc410830.Emscripten.clang"
  },
  "schemaVersion": "3.4.3",
  "updatedAt": "2021-12-07T12:43:41.053Z",
  "networkType": "ethereum",
  "devdoc": {
    "kind": "dev",
    "methods": {
      "balanceOf(address,uint256)": {
        "details": "See {IERC1155-balanceOf}. Requirements: - `account` cannot be the zero address."
      },
      "balanceOfBatch(address[],uint256[])": {
        "details": "See {IERC1155-balanceOfBatch}. Requirements: - `accounts` and `ids` must have the same length."
      },
      "isApprovedForAll(address,address)": {
        "details": "See {IERC1155-isApprovedForAll}."
      },
      "safeBatchTransferFrom(address,address,uint256[],uint256[],bytes)": {
        "details": "See {IERC1155-safeBatchTransferFrom}."
      },
      "safeTransferFrom(address,address,uint256,uint256,bytes)": {
        "details": "See {IERC1155-safeTransferFrom}."
      },
      "setApprovalForAll(address,bool)": {
        "details": "See {IERC1155-setApprovalForAll}."
      },
      "supportsInterface(bytes4)": {
        "details": "See {IERC165-supportsInterface}."
      },
      "uri(uint256)": {
        "details": "See {IERC1155MetadataURI-uri}. This implementation returns the same URI for *all* token types. It relies on the token type ID substitution mechanism https://eips.ethereum.org/EIPS/eip-1155#metadata[defined in the EIP]. Clients calling this function must replace the `\\{id\\}` substring with the actual token type ID."
      }
    },
    "version": 1
  },
  "userdoc": {
    "kind": "user",
    "methods": {},
    "version": 1
  }
}