{
  "contractName": "Tomatoken",
  "abi": [
    {
      "inputs": [],
      "stateMutability": "nonpayable",
      "type": "constructor"
    },
    {
      "anonymous": false,
      "inputs": [
        {
          "indexed": true,
          "internalType": "address",
          "name": "account",
          "type": "address"
        },
        {
          "indexed": true,
          "internalType": "address",
          "name": "operator",
          "type": "address"
        },
        {
          "indexed": false,
          "internalType": "bool",
          "name": "approved",
          "type": "bool"
        }
      ],
      "name": "ApprovalForAll",
      "type": "event"
    },
    {
      "anonymous": false,
      "inputs": [
        {
          "indexed": true,
          "internalType": "address",
          "name": "buyer",
          "type": "address"
        },
        {
          "indexed": false,
          "internalType": "uint256",
          "name": "amount",
          "type": "uint256"
        }
      ],
      "name": "TomatokenBought",
      "type": "event"
    },
    {
      "anonymous": false,
      "inputs": [
        {
          "indexed": true,
          "internalType": "address",
          "name": "operator",
          "type": "address"
        },
        {
          "indexed": true,
          "internalType": "address",
          "name": "from",
          "type": "address"
        },
        {
          "indexed": true,
          "internalType": "address",
          "name": "to",
          "type": "address"
        },
        {
          "indexed": false,
          "internalType": "uint256[]",
          "name": "ids",
          "type": "uint256[]"
        },
        {
          "indexed": false,
          "internalType": "uint256[]",
          "name": "values",
          "type": "uint256[]"
        }
      ],
      "name": "TransferBatch",
      "type": "event"
    },
    {
      "anonymous": false,
      "inputs": [
        {
          "indexed": true,
          "internalType": "address",
          "name": "operator",
          "type": "address"
        },
        {
          "indexed": true,
          "internalType": "address",
          "name": "from",
          "type": "address"
        },
        {
          "indexed": true,
          "internalType": "address",
          "name": "to",
          "type": "address"
        },
        {
          "indexed": false,
          "internalType": "uint256",
          "name": "id",
          "type": "uint256"
        },
        {
          "indexed": false,
          "internalType": "uint256",
          "name": "value",
          "type": "uint256"
        }
      ],
      "name": "TransferSingle",
      "type": "event"
    },
    {
      "anonymous": false,
      "inputs": [
        {
          "indexed": false,
          "internalType": "string",
          "name": "value",
          "type": "string"
        },
        {
          "indexed": true,
          "internalType": "uint256",
          "name": "id",
          "type": "uint256"
        }
      ],
      "name": "URI",
      "type": "event"
    },
    {
      "inputs": [],
      "name": "TOMATOKENS",
      "outputs": [
        {
          "internalType": "uint256",
          "name": "",
          "type": "uint256"
        }
      ],
      "stateMutability": "view",
      "type": "function",
      "constant": true
    },
    {
      "inputs": [],
      "name": "TOMATOKEN_PRICE_IN_WEI",
      "outputs": [
        {
          "internalType": "uint256",
          "name": "",
          "type": "uint256"
        }
      ],
      "stateMutability": "view",
      "type": "function",
      "constant": true
    },
    {
      "inputs": [
        {
          "internalType": "address",
          "name": "account",
          "type": "address"
        },
        {
          "internalType": "uint256",
          "name": "id",
          "type": "uint256"
        }
      ],
      "name": "balanceOf",
      "outputs": [
        {
          "internalType": "uint256",
          "name": "",
          "type": "uint256"
        }
      ],
      "stateMutability": "view",
      "type": "function",
      "constant": true
    },
    {
      "inputs": [
        {
          "internalType": "address[]",
          "name": "accounts",
          "type": "address[]"
        },
        {
          "internalType": "uint256[]",
          "name": "ids",
          "type": "uint256[]"
        }
      ],
      "name": "balanceOfBatch",
      "outputs": [
        {
          "internalType": "uint256[]",
          "name": "",
          "type": "uint256[]"
        }
      ],
      "stateMutability": "view",
      "type": "function",
      "constant": true
    },
    {
      "inputs": [
        {
          "internalType": "address",
          "name": "account",
          "type": "address"
        },
        {
          "internalType": "address",
          "name": "operator",
          "type": "address"
        }
      ],
      "name": "isApprovedForAll",
      "outputs": [
        {
          "internalType": "bool",
          "name": "",
          "type": "bool"
        }
      ],
      "stateMutability": "view",
      "type": "function",
      "constant": true
    },
    {
      "inputs": [
        {
          "internalType": "address",
          "name": "from",
          "type": "address"
        },
        {
          "internalType": "address",
          "name": "to",
          "type": "address"
        },
        {
          "internalType": "uint256[]",
          "name": "ids",
          "type": "uint256[]"
        },
        {
          "internalType": "uint256[]",
          "name": "amounts",
          "type": "uint256[]"
        },
        {
          "internalType": "bytes",
          "name": "data",
          "type": "bytes"
        }
      ],
      "name": "safeBatchTransferFrom",
      "outputs": [],
      "stateMutability": "nonpayable",
      "type": "function"
    },
    {
      "inputs": [
        {
          "internalType": "address",
          "name": "from",
          "type": "address"
        },
        {
          "internalType": "address",
          "name": "to",
          "type": "address"
        },
        {
          "internalType": "uint256",
          "name": "id",
          "type": "uint256"
        },
        {
          "internalType": "uint256",
          "name": "amount",
          "type": "uint256"
        },
        {
          "internalType": "bytes",
          "name": "data",
          "type": "bytes"
        }
      ],
      "name": "safeTransferFrom",
      "outputs": [],
      "stateMutability": "nonpayable",
      "type": "function"
    },
    {
      "inputs": [
        {
          "internalType": "address",
          "name": "operator",
          "type": "address"
        },
        {
          "internalType": "bool",
          "name": "approved",
          "type": "bool"
        }
      ],
      "name": "setApprovalForAll",
      "outputs": [],
      "stateMutability": "nonpayable",
      "type": "function"
    },
    {
      "inputs": [
        {
          "internalType": "bytes4",
          "name": "interfaceId",
          "type": "bytes4"
        }
      ],
      "name": "supportsInterface",
      "outputs": [
        {
          "internalType": "bool",
          "name": "",
          "type": "bool"
        }
      ],
      "stateMutability": "view",
      "type": "function",
      "constant": true
    },
    {
      "inputs": [
        {
          "internalType": "uint256",
          "name": "",
          "type": "uint256"
        }
      ],
      "name": "uri",
      "outputs": [
        {
          "internalType": "string",
          "name": "",
          "type": "string"
        }
      ],
      "stateMutability": "view",
      "type": "function",
      "constant": true
    },
    {
      "inputs": [],
      "name": "buyTokens",
      "outputs": [],
      "stateMutability": "payable",
      "type": "function",
      "payable": true
    }
  ],
  "bytecode": "0x60806040523480156200001157600080fd5b506040518060200160405280600081525062000033816200006660201b60201c565b5062000060306000670de0b6b3a7640000604051806020016040528060008152506200008260201b60201c565b62000c6a565b80600290805190602001906200007e929190620004e5565b5050565b600073ffffffffffffffffffffffffffffffffffffffff168473ffffffffffffffffffffffffffffffffffffffff161415620000f5576040517f08c379a0000000000000000000000000000000000000000000000000000000008152600401620000ec906200061c565b60405180910390fd5b6000620001076200024760201b60201c565b9050620001408160008762000122886200024f60201b60201c565b62000133886200024f60201b60201c565b87620002d060201b60201c565b8260008086815260200190815260200160002060008773ffffffffffffffffffffffffffffffffffffffff1673ffffffffffffffffffffffffffffffffffffffff1681526020019081526020016000206000828254620001a1919062000677565b925050819055508473ffffffffffffffffffffffffffffffffffffffff16600073ffffffffffffffffffffffffffffffffffffffff168273ffffffffffffffffffffffffffffffffffffffff167fc3d58168c5ae7397731d063d5bbf3d657854427343f4c083240f7aacaa2d0f62878760405162000221929190620006e5565b60405180910390a46200024081600087878787620002d860201b60201c565b5050505050565b600033905090565b60606000600167ffffffffffffffff81111562000271576200027062000712565b5b604051908082528060200260200182016040528015620002a05781602001602082028036833780820191505090505b5090508281600081518110620002bb57620002ba62000741565b5b60200260200101818152505080915050919050565b505050505050565b620003048473ffffffffffffffffffffffffffffffffffffffff16620004d260201b62000a3f1760201c565b15620004ca578373ffffffffffffffffffffffffffffffffffffffff1663f23a6e6187878686866040518663ffffffff1660e01b81526004016200034d95949392919062000859565b6020604051808303816000875af19250505080156200038c57506040513d601f19601f8201168201806040525081019062000389919062000929565b60015b6200043e576200039b62000968565b806308c379a01415620003ff5750620003b3620009c3565b80620003c0575062000401565b806040517f08c379a0000000000000000000000000000000000000000000000000000000008152600401620003f6919062000ab1565b60405180910390fd5b505b6040517f08c379a0000000000000000000000000000000000000000000000000000000008152600401620004359062000b4b565b60405180910390fd5b63f23a6e6160e01b7bffffffffffffffffffffffffffffffffffffffffffffffffffffffff1916817bffffffffffffffffffffffffffffffffffffffffffffffffffffffff191614620004c8576040517f08c379a0000000000000000000000000000000000000000000000000000000008152600401620004bf9062000be3565b60405180910390fd5b505b505050505050565b600080823b905060008111915050919050565b828054620004f39062000c34565b90600052602060002090601f01602090048101928262000517576000855562000563565b82601f106200053257805160ff191683800117855562000563565b8280016001018555821562000563579182015b828111156200056257825182559160200191906001019062000545565b5b50905062000572919062000576565b5090565b5b808211156200059157600081600090555060010162000577565b5090565b600082825260208201905092915050565b7f455243313135353a206d696e7420746f20746865207a65726f2061646472657360008201527f7300000000000000000000000000000000000000000000000000000000000000602082015250565b60006200060460218362000595565b91506200061182620005a6565b604082019050919050565b600060208201905081810360008301526200063781620005f5565b9050919050565b6000819050919050565b7f4e487b7100000000000000000000000000000000000000000000000000000000600052601160045260246000fd5b600062000684826200063e565b915062000691836200063e565b9250827fffffffffffffffffffffffffffffffffffffffffffffffffffffffffffffffff03821115620006c957620006c862000648565b5b828201905092915050565b620006df816200063e565b82525050565b6000604082019050620006fc6000830185620006d4565b6200070b6020830184620006d4565b9392505050565b7f4e487b7100000000000000000000000000000000000000000000000000000000600052604160045260246000fd5b7f4e487b7100000000000000000000000000000000000000000000000000000000600052603260045260246000fd5b600073ffffffffffffffffffffffffffffffffffffffff82169050919050565b60006200079d8262000770565b9050919050565b620007af8162000790565b82525050565b600081519050919050565b600082825260208201905092915050565b60005b83811015620007f1578082015181840152602081019050620007d4565b8381111562000801576000848401525b50505050565b6000601f19601f8301169050919050565b60006200082582620007b5565b620008318185620007c0565b935062000843818560208601620007d1565b6200084e8162000807565b840191505092915050565b600060a082019050620008706000830188620007a4565b6200087f6020830187620007a4565b6200088e6040830186620006d4565b6200089d6060830185620006d4565b8181036080830152620008b1818462000818565b90509695505050505050565b6000604051905090565b600080fd5b60007fffffffff0000000000000000000000000000000000000000000000000000000082169050919050565b6200090381620008cc565b81146200090f57600080fd5b50565b6000815190506200092381620008f8565b92915050565b600060208284031215620009425762000941620008c7565b5b6000620009528482850162000912565b91505092915050565b60008160e01c9050919050565b600060033d11156200098a5760046000803e620009876000516200095b565b90505b90565b620009988262000807565b810181811067ffffffffffffffff82111715620009ba57620009b962000712565b5b80604052505050565b600060443d1015620009d55762000a62565b620009df620008bd565b60043d036004823e80513d602482011167ffffffffffffffff8211171562000a0957505062000a62565b808201805167ffffffffffffffff81111562000a29575050505062000a62565b80602083010160043d03850181111562000a4857505050505062000a62565b62000a59826020018501866200098d565b82955050505050505b90565b600081519050919050565b600062000a7d8262000a65565b62000a89818562000595565b935062000a9b818560208601620007d1565b62000aa68162000807565b840191505092915050565b6000602082019050818103600083015262000acd818462000a70565b905092915050565b7f455243313135353a207472616e7366657220746f206e6f6e204552433131353560008201527f526563656976657220696d706c656d656e746572000000000000000000000000602082015250565b600062000b3360348362000595565b915062000b408262000ad5565b604082019050919050565b6000602082019050818103600083015262000b668162000b24565b9050919050565b7f455243313135353a204552433131353552656365697665722072656a6563746560008201527f6420746f6b656e73000000000000000000000000000000000000000000000000602082015250565b600062000bcb60288362000595565b915062000bd88262000b6d565b604082019050919050565b6000602082019050818103600083015262000bfe8162000bbc565b9050919050565b7f4e487b7100000000000000000000000000000000000000000000000000000000600052602260045260246000fd5b6000600282049050600182168062000c4d57607f821691505b6020821081141562000c645762000c6362000c05565b5b50919050565b61283d8062000c7a6000396000f3fe60806040526004361061009b5760003560e01c80636dc7b5ce116100645780636dc7b5ce146101bd578063a22cb465146101e8578063d0febe4c14610211578063d90edc3c1461021b578063e985e9c514610246578063f242432a146102835761009b565b8062fdd58e146100a057806301ffc9a7146100dd5780630e89341c1461011a5780632eb2c2d6146101575780634e1273f414610180575b600080fd5b3480156100ac57600080fd5b506100c760048036038101906100c29190611534565b6102ac565b6040516100d49190611583565b60405180910390f35b3480156100e957600080fd5b5061010460048036038101906100ff91906115f6565b610375565b604051610111919061163e565b60405180910390f35b34801561012657600080fd5b50610141600480360381019061013c9190611659565b610457565b60405161014e919061171f565b60405180910390f35b34801561016357600080fd5b5061017e6004803603810190610179919061193e565b6104eb565b005b34801561018c57600080fd5b506101a760048036038101906101a29190611ad0565b61058c565b6040516101b49190611c06565b60405180910390f35b3480156101c957600080fd5b506101d26106a5565b6040516101df9190611583565b60405180910390f35b3480156101f457600080fd5b5061020f600480360381019061020a9190611c54565b6106aa565b005b61021961082b565b005b34801561022757600080fd5b50610230610901565b60405161023d9190611583565b60405180910390f35b34801561025257600080fd5b5061026d60048036038101906102689190611c94565b61090a565b60405161027a919061163e565b60405180910390f35b34801561028f57600080fd5b506102aa60048036038101906102a59190611cd4565b61099e565b005b60008073ffffffffffffffffffffffffffffffffffffffff168373ffffffffffffffffffffffffffffffffffffffff16141561031d576040517f08c379a000000000000000000000000000000000000000000000000000000000815260040161031490611ddd565b60405180910390fd5b60008083815260200190815260200160002060008473ffffffffffffffffffffffffffffffffffffffff1673ffffffffffffffffffffffffffffffffffffffff16815260200190815260200160002054905092915050565b60007fd9b67a26000000000000000000000000000000000000000000000000000000007bffffffffffffffffffffffffffffffffffffffffffffffffffffffff1916827bffffffffffffffffffffffffffffffffffffffffffffffffffffffff1916148061044057507f0e89341c000000000000000000000000000000000000000000000000000000007bffffffffffffffffffffffffffffffffffffffffffffffffffffffff1916827bffffffffffffffffffffffffffffffffffffffffffffffffffffffff1916145b80610450575061044f82610a52565b5b9050919050565b60606002805461046690611e2c565b80601f016020809104026020016040519081016040528092919081815260200182805461049290611e2c565b80156104df5780601f106104b4576101008083540402835291602001916104df565b820191906000526020600020905b8154815290600101906020018083116104c257829003601f168201915b50505050509050919050565b6104f3610abc565b73ffffffffffffffffffffffffffffffffffffffff168573ffffffffffffffffffffffffffffffffffffffff161480610539575061053885610533610abc565b61090a565b5b610578576040517f08c379a000000000000000000000000000000000000000000000000000000000815260040161056f90611ed0565b60405180910390fd5b6105858585858585610ac4565b5050505050565b606081518351146105d2576040517f08c379a00000000000000000000000000000000000000000000000000000000081526004016105c990611f62565b60405180910390fd5b6000835167ffffffffffffffff8111156105ef576105ee611746565b5b60405190808252806020026020018201604052801561061d5781602001602082028036833780820191505090505b50905060005b845181101561069a5761066a85828151811061064257610641611f82565b5b602002602001015185838151811061065d5761065c611f82565b5b60200260200101516102ac565b82828151811061067d5761067c611f82565b5b6020026020010181815250508061069390611fe0565b9050610623565b508091505092915050565b600081565b8173ffffffffffffffffffffffffffffffffffffffff166106c9610abc565b73ffffffffffffffffffffffffffffffffffffffff161415610720576040517f08c379a00000000000000000000000000000000000000000000000000000000081526004016107179061209b565b60405180910390fd5b806001600061072d610abc565b73ffffffffffffffffffffffffffffffffffffffff1673ffffffffffffffffffffffffffffffffffffffff16815260200190815260200160002060008473ffffffffffffffffffffffffffffffffffffffff1673ffffffffffffffffffffffffffffffffffffffff16815260200190815260200160002060006101000a81548160ff0219169083151502179055508173ffffffffffffffffffffffffffffffffffffffff166107da610abc565b73ffffffffffffffffffffffffffffffffffffffff167f17307eab39ab6107e8899845ad3d59bd9653f200f220920489ca2b5937696c318360405161081f919061163e565b60405180910390a35050565b600064e8d4a510003461083e91906120ea565b1461087e576040517f08c379a000000000000000000000000000000000000000000000000000000000815260040161087590612167565b60405180910390fd5b600064e8d4a51000346108919190612187565b90506108b0303360008460405180602001604052806000815250610dd8565b3373ffffffffffffffffffffffffffffffffffffffff167f5cb018552b2aca4b312acd5f7daa7f817d22471c9d80f0f727496bce2bbdd437826040516108f69190611583565b60405180910390a250565b64e8d4a5100081565b6000600160008473ffffffffffffffffffffffffffffffffffffffff1673ffffffffffffffffffffffffffffffffffffffff16815260200190815260200160002060008373ffffffffffffffffffffffffffffffffffffffff1673ffffffffffffffffffffffffffffffffffffffff16815260200190815260200160002060009054906101000a900460ff16905092915050565b6109a6610abc565b73ffffffffffffffffffffffffffffffffffffffff168573ffffffffffffffffffffffffffffffffffffffff1614806109ec57506109eb856109e6610abc565b61090a565b5b610a2b576040517f08c379a0000000000000000000000000000000000000000000000000000000008152600401610a229061222a565b60405180910390fd5b610a388585858585610dd8565b5050505050565b600080823b905060008111915050919050565b60007f01ffc9a7000000000000000000000000000000000000000000000000000000007bffffffffffffffffffffffffffffffffffffffffffffffffffffffff1916827bffffffffffffffffffffffffffffffffffffffffffffffffffffffff1916149050919050565b600033905090565b8151835114610b08576040517f08c379a0000000000000000000000000000000000000000000000000000000008152600401610aff906122bc565b60405180910390fd5b600073ffffffffffffffffffffffffffffffffffffffff168473ffffffffffffffffffffffffffffffffffffffff161415610b78576040517f08c379a0000000000000000000000000000000000000000000000000000000008152600401610b6f9061234e565b60405180910390fd5b6000610b82610abc565b9050610b9281878787878761105a565b60005b8451811015610d43576000858281518110610bb357610bb2611f82565b5b602002602001015190506000858381518110610bd257610bd1611f82565b5b60200260200101519050600080600084815260200190815260200160002060008b73ffffffffffffffffffffffffffffffffffffffff1673ffffffffffffffffffffffffffffffffffffffff16815260200190815260200160002054905081811015610c73576040517f08c379a0000000000000000000000000000000000000000000000000000000008152600401610c6a906123e0565b60405180910390fd5b81810360008085815260200190815260200160002060008c73ffffffffffffffffffffffffffffffffffffffff1673ffffffffffffffffffffffffffffffffffffffff168152602001908152602001600020819055508160008085815260200190815260200160002060008b73ffffffffffffffffffffffffffffffffffffffff1673ffffffffffffffffffffffffffffffffffffffff1681526020019081526020016000206000828254610d289190612400565b9250508190555050505080610d3c90611fe0565b9050610b95565b508473ffffffffffffffffffffffffffffffffffffffff168673ffffffffffffffffffffffffffffffffffffffff168273ffffffffffffffffffffffffffffffffffffffff167f4a39dc06d4c0dbc64b70af90fd698a233a518aa5d07e595d983b8c0526c8f7fb8787604051610dba929190612456565b60405180910390a4610dd0818787878787611062565b505050505050565b600073ffffffffffffffffffffffffffffffffffffffff168473ffffffffffffffffffffffffffffffffffffffff161415610e48576040517f08c379a0000000000000000000000000000000000000000000000000000000008152600401610e3f9061234e565b60405180910390fd5b6000610e52610abc565b9050610e72818787610e638861123a565b610e6c8861123a565b8761105a565b600080600086815260200190815260200160002060008873ffffffffffffffffffffffffffffffffffffffff1673ffffffffffffffffffffffffffffffffffffffff16815260200190815260200160002054905083811015610f09576040517f08c379a0000000000000000000000000000000000000000000000000000000008152600401610f00906123e0565b60405180910390fd5b83810360008087815260200190815260200160002060008973ffffffffffffffffffffffffffffffffffffffff1673ffffffffffffffffffffffffffffffffffffffff168152602001908152602001600020819055508360008087815260200190815260200160002060008873ffffffffffffffffffffffffffffffffffffffff1673ffffffffffffffffffffffffffffffffffffffff1681526020019081526020016000206000828254610fbe9190612400565b925050819055508573ffffffffffffffffffffffffffffffffffffffff168773ffffffffffffffffffffffffffffffffffffffff168373ffffffffffffffffffffffffffffffffffffffff167fc3d58168c5ae7397731d063d5bbf3d657854427343f4c083240f7aacaa2d0f62888860405161103b92919061248d565b60405180910390a46110518288888888886112b4565b50505050505050565b505050505050565b6110818473ffffffffffffffffffffffffffffffffffffffff16610a3f565b15611232578373ffffffffffffffffffffffffffffffffffffffff1663bc197c8187878686866040518663ffffffff1660e01b81526004016110c795949392919061251a565b6020604051808303816000875af192505050801561110357506040513d601f19601f820116820180604052508101906111009190612597565b60015b6111a95761110f6125d1565b806308c379a0141561116c57506111246125f3565b8061112f575061116e565b806040517f08c379a0000000000000000000000000000000000000000000000000000000008152600401611163919061171f565b60405180910390fd5b505b6040517f08c379a00000000000000000000000000000000000000000000000000000000081526004016111a0906126fb565b60405180910390fd5b63bc197c8160e01b7bffffffffffffffffffffffffffffffffffffffffffffffffffffffff1916817bffffffffffffffffffffffffffffffffffffffffffffffffffffffff191614611230576040517f08c379a00000000000000000000000000000000000000000000000000000000081526004016112279061278d565b60405180910390fd5b505b505050505050565b60606000600167ffffffffffffffff81111561125957611258611746565b5b6040519080825280602002602001820160405280156112875781602001602082028036833780820191505090505b509050828160008151811061129f5761129e611f82565b5b60200260200101818152505080915050919050565b6112d38473ffffffffffffffffffffffffffffffffffffffff16610a3f565b15611484578373ffffffffffffffffffffffffffffffffffffffff1663f23a6e6187878686866040518663ffffffff1660e01b81526004016113199594939291906127ad565b6020604051808303816000875af192505050801561135557506040513d601f19601f820116820180604052508101906113529190612597565b60015b6113fb576113616125d1565b806308c379a014156113be57506113766125f3565b8061138157506113c0565b806040517f08c379a00000000000000000000000000000000000000000000000000000000081526004016113b5919061171f565b60405180910390fd5b505b6040517f08c379a00000000000000000000000000000000000000000000000000000000081526004016113f2906126fb565b60405180910390fd5b63f23a6e6160e01b7bffffffffffffffffffffffffffffffffffffffffffffffffffffffff1916817bffffffffffffffffffffffffffffffffffffffffffffffffffffffff191614611482576040517f08c379a00000000000000000000000000000000000000000000000000000000081526004016114799061278d565b60405180910390fd5b505b505050505050565b6000604051905090565b600080fd5b600080fd5b600073ffffffffffffffffffffffffffffffffffffffff82169050919050565b60006114cb826114a0565b9050919050565b6114db816114c0565b81146114e657600080fd5b50565b6000813590506114f8816114d2565b92915050565b6000819050919050565b611511816114fe565b811461151c57600080fd5b50565b60008135905061152e81611508565b92915050565b6000806040838503121561154b5761154a611496565b5b6000611559858286016114e9565b925050602061156a8582860161151f565b9150509250929050565b61157d816114fe565b82525050565b60006020820190506115986000830184611574565b92915050565b60007fffffffff0000000000000000000000000000000000000000000000000000000082169050919050565b6115d38161159e565b81146115de57600080fd5b50565b6000813590506115f0816115ca565b92915050565b60006020828403121561160c5761160b611496565b5b600061161a848285016115e1565b91505092915050565b60008115159050919050565b61163881611623565b82525050565b6000602082019050611653600083018461162f565b92915050565b60006020828403121561166f5761166e611496565b5b600061167d8482850161151f565b91505092915050565b600081519050919050565b600082825260208201905092915050565b60005b838110156116c05780820151818401526020810190506116a5565b838111156116cf576000848401525b50505050565b6000601f19601f8301169050919050565b60006116f182611686565b6116fb8185611691565b935061170b8185602086016116a2565b611714816116d5565b840191505092915050565b6000602082019050818103600083015261173981846116e6565b905092915050565b600080fd5b7f4e487b7100000000000000000000000000000000000000000000000000000000600052604160045260246000fd5b61177e826116d5565b810181811067ffffffffffffffff8211171561179d5761179c611746565b5b80604052505050565b60006117b061148c565b90506117bc8282611775565b919050565b600067ffffffffffffffff8211156117dc576117db611746565b5b602082029050602081019050919050565b600080fd5b6000611805611800846117c1565b6117a6565b90508083825260208201905060208402830185811115611828576118276117ed565b5b835b81811015611851578061183d888261151f565b84526020840193505060208101905061182a565b5050509392505050565b600082601f8301126118705761186f611741565b5b81356118808482602086016117f2565b91505092915050565b600080fd5b600067ffffffffffffffff8211156118a9576118a8611746565b5b6118b2826116d5565b9050602081019050919050565b82818337600083830152505050565b60006118e16118dc8461188e565b6117a6565b9050828152602081018484840111156118fd576118fc611889565b5b6119088482856118bf565b509392505050565b600082601f83011261192557611924611741565b5b81356119358482602086016118ce565b91505092915050565b600080600080600060a0868803121561195a57611959611496565b5b6000611968888289016114e9565b9550506020611979888289016114e9565b945050604086013567ffffffffffffffff81111561199a5761199961149b565b5b6119a68882890161185b565b935050606086013567ffffffffffffffff8111156119c7576119c661149b565b5b6119d38882890161185b565b925050608086013567ffffffffffffffff8111156119f4576119f361149b565b5b611a0088828901611910565b9150509295509295909350565b600067ffffffffffffffff821115611a2857611a27611746565b5b602082029050602081019050919050565b6000611a4c611a4784611a0d565b6117a6565b90508083825260208201905060208402830185811115611a6f57611a6e6117ed565b5b835b81811015611a985780611a8488826114e9565b845260208401935050602081019050611a71565b5050509392505050565b600082601f830112611ab757611ab6611741565b5b8135611ac7848260208601611a39565b91505092915050565b60008060408385031215611ae757611ae6611496565b5b600083013567ffffffffffffffff811115611b0557611b0461149b565b5b611b1185828601611aa2565b925050602083013567ffffffffffffffff811115611b3257611b3161149b565b5b611b3e8582860161185b565b9150509250929050565b600081519050919050565b600082825260208201905092915050565b6000819050602082019050919050565b611b7d816114fe565b82525050565b6000611b8f8383611b74565b60208301905092915050565b6000602082019050919050565b6000611bb382611b48565b611bbd8185611b53565b9350611bc883611b64565b8060005b83811015611bf9578151611be08882611b83565b9750611beb83611b9b565b925050600181019050611bcc565b5085935050505092915050565b60006020820190508181036000830152611c208184611ba8565b905092915050565b611c3181611623565b8114611c3c57600080fd5b50565b600081359050611c4e81611c28565b92915050565b60008060408385031215611c6b57611c6a611496565b5b6000611c79858286016114e9565b9250506020611c8a85828601611c3f565b9150509250929050565b60008060408385031215611cab57611caa611496565b5b6000611cb9858286016114e9565b9250506020611cca858286016114e9565b9150509250929050565b600080600080600060a08688031215611cf057611cef611496565b5b6000611cfe888289016114e9565b9550506020611d0f888289016114e9565b9450506040611d208882890161151f565b9350506060611d318882890161151f565b925050608086013567ffffffffffffffff811115611d5257611d5161149b565b5b611d5e88828901611910565b9150509295509295909350565b7f455243313135353a2062616c616e636520717565727920666f7220746865207a60008201527f65726f2061646472657373000000000000000000000000000000000000000000602082015250565b6000611dc7602b83611691565b9150611dd282611d6b565b604082019050919050565b60006020820190508181036000830152611df681611dba565b9050919050565b7f4e487b7100000000000000000000000000000000000000000000000000000000600052602260045260246000fd5b60006002820490506001821680611e4457607f821691505b60208210811415611e5857611e57611dfd565b5b50919050565b7f455243313135353a207472616e736665722063616c6c6572206973206e6f742060008201527f6f776e6572206e6f7220617070726f7665640000000000000000000000000000602082015250565b6000611eba603283611691565b9150611ec582611e5e565b604082019050919050565b60006020820190508181036000830152611ee981611ead565b9050919050565b7f455243313135353a206163636f756e747320616e6420696473206c656e67746860008201527f206d69736d617463680000000000000000000000000000000000000000000000602082015250565b6000611f4c602983611691565b9150611f5782611ef0565b604082019050919050565b60006020820190508181036000830152611f7b81611f3f565b9050919050565b7f4e487b7100000000000000000000000000000000000000000000000000000000600052603260045260246000fd5b7f4e487b7100000000000000000000000000000000000000000000000000000000600052601160045260246000fd5b6000611feb826114fe565b91507fffffffffffffffffffffffffffffffffffffffffffffffffffffffffffffffff82141561201e5761201d611fb1565b5b600182019050919050565b7f455243313135353a2073657474696e6720617070726f76616c2073746174757360008201527f20666f722073656c660000000000000000000000000000000000000000000000602082015250565b6000612085602983611691565b915061209082612029565b604082019050919050565b600060208201905081810360008301526120b481612078565b9050919050565b7f4e487b7100000000000000000000000000000000000000000000000000000000600052601260045260246000fd5b60006120f5826114fe565b9150612100836114fe565b9250826121105761210f6120bb565b5b828206905092915050565b7f4f6e6c7920616363657074696e67207468652066756c6c207072696365000000600082015250565b6000612151601d83611691565b915061215c8261211b565b602082019050919050565b6000602082019050818103600083015261218081612144565b9050919050565b6000612192826114fe565b915061219d836114fe565b9250826121ad576121ac6120bb565b5b828204905092915050565b7f455243313135353a2063616c6c6572206973206e6f74206f776e6572206e6f7260008201527f20617070726f7665640000000000000000000000000000000000000000000000602082015250565b6000612214602983611691565b915061221f826121b8565b604082019050919050565b6000602082019050818103600083015261224381612207565b9050919050565b7f455243313135353a2069647320616e6420616d6f756e7473206c656e6774682060008201527f6d69736d61746368000000000000000000000000000000000000000000000000602082015250565b60006122a6602883611691565b91506122b18261224a565b604082019050919050565b600060208201905081810360008301526122d581612299565b9050919050565b7f455243313135353a207472616e7366657220746f20746865207a65726f20616460008201527f6472657373000000000000000000000000000000000000000000000000000000602082015250565b6000612338602583611691565b9150612343826122dc565b604082019050919050565b600060208201905081810360008301526123678161232b565b9050919050565b7f455243313135353a20696e73756666696369656e742062616c616e636520666f60008201527f72207472616e7366657200000000000000000000000000000000000000000000602082015250565b60006123ca602a83611691565b91506123d58261236e565b604082019050919050565b600060208201905081810360008301526123f9816123bd565b9050919050565b600061240b826114fe565b9150612416836114fe565b9250827fffffffffffffffffffffffffffffffffffffffffffffffffffffffffffffffff0382111561244b5761244a611fb1565b5b828201905092915050565b600060408201905081810360008301526124708185611ba8565b905081810360208301526124848184611ba8565b90509392505050565b60006040820190506124a26000830185611574565b6124af6020830184611574565b9392505050565b6124bf816114c0565b82525050565b600081519050919050565b600082825260208201905092915050565b60006124ec826124c5565b6124f681856124d0565b93506125068185602086016116a2565b61250f816116d5565b840191505092915050565b600060a08201905061252f60008301886124b6565b61253c60208301876124b6565b818103604083015261254e8186611ba8565b905081810360608301526125628185611ba8565b9050818103608083015261257681846124e1565b90509695505050505050565b600081519050612591816115ca565b92915050565b6000602082840312156125ad576125ac611496565b5b60006125bb84828501612582565b91505092915050565b60008160e01c9050919050565b600060033d11156125f05760046000803e6125ed6000516125c4565b90505b90565b600060443d101561260357612686565b61260b61148c565b60043d036004823e80513d602482011167ffffffffffffffff82111715612633575050612686565b808201805167ffffffffffffffff8111156126515750505050612686565b80602083010160043d03850181111561266e575050505050612686565b61267d82602001850186611775565b82955050505050505b90565b7f455243313135353a207472616e7366657220746f206e6f6e204552433131353560008201527f526563656976657220696d706c656d656e746572000000000000000000000000602082015250565b60006126e5603483611691565b91506126f082612689565b604082019050919050565b60006020820190508181036000830152612714816126d8565b9050919050565b7f455243313135353a204552433131353552656365697665722072656a6563746560008201527f6420746f6b656e73000000000000000000000000000000000000000000000000602082015250565b6000612777602883611691565b91506127828261271b565b604082019050919050565b600060208201905081810360008301526127a68161276a565b9050919050565b600060a0820190506127c260008301886124b6565b6127cf60208301876124b6565b6127dc6040830186611574565b6127e96060830185611574565b81810360808301526127fb81846124e1565b9050969550505050505056fea26469706673582212207a5aa4db08de23a23aab9e1df5c7a5578d71a440621ed2d75ff1c226a8b2f6ac64736f6c634300080a0033",
  "immutableReferences": {},
  "source": "pragma solidity ^0.8.0;\n\nimport \"@openzeppelin/contracts/token/ERC1155/ERC1155.sol\";\n\ncontract Tomatoken is ERC1155 {\n\n\tuint public constant TOMATOKENS = 0;\n\tuint public constant TOMATOKEN_PRICE_IN_WEI = 10**12;\n\tevent TomatokenBought(address indexed buyer, uint amount);\n\n\tconstructor() ERC1155(\"\") {\n\t\t// owner = msg.sender;\n\t\t_mint(address(this), TOMATOKENS, 10**18, \"\");\n\t}\n\n\tfunction buyTokens() public payable {\n\t\trequire(uint(msg.value) % TOMATOKEN_PRICE_IN_WEI == 0, \"Only accepting the full price\");\n\t\tuint amountOfTomatokens = uint(msg.value) / TOMATOKEN_PRICE_IN_WEI;\n\t\t_safeTransferFrom(address(this),  msg.sender, TOMATOKENS, amountOfTomatokens, \"\");\n\t\temit TomatokenBought(msg.sender, amountOfTomatokens);\n\t}\n}\n\n\n",
  "sourcePath": "/Users/lucha/code/tomatoken/contracts/Tomatoken.sol",
  "compiler": {
    "name": "solc",
    "version": "0.8.10+commit.fc410830.Emscripten.clang"
  },
  "schemaVersion": "3.4.3",
  "updatedAt": "2021-11-19T18:56:22.322Z",
  "networkType": "ethereum",
  "devdoc": {
    "kind": "dev",
    "methods": {
      "balanceOf(address,uint256)": {
        "details": "See {IERC1155-balanceOf}. Requirements: - `account` cannot be the zero address."
      },
      "balanceOfBatch(address[],uint256[])": {
        "details": "See {IERC1155-balanceOfBatch}. Requirements: - `accounts` and `ids` must have the same length."
      },
      "isApprovedForAll(address,address)": {
        "details": "See {IERC1155-isApprovedForAll}."
      },
      "safeBatchTransferFrom(address,address,uint256[],uint256[],bytes)": {
        "details": "See {IERC1155-safeBatchTransferFrom}."
      },
      "safeTransferFrom(address,address,uint256,uint256,bytes)": {
        "details": "See {IERC1155-safeTransferFrom}."
      },
      "setApprovalForAll(address,bool)": {
        "details": "See {IERC1155-setApprovalForAll}."
      },
      "supportsInterface(bytes4)": {
        "details": "See {IERC165-supportsInterface}."
      },
      "uri(uint256)": {
        "details": "See {IERC1155MetadataURI-uri}. This implementation returns the same URI for *all* token types. It relies on the token type ID substitution mechanism https://eips.ethereum.org/EIPS/eip-1155#metadata[defined in the EIP]. Clients calling this function must replace the `\\{id\\}` substring with the actual token type ID."
      }
    },
    "version": 1
  },
  "userdoc": {
    "kind": "user",
    "methods": {},
    "version": 1
  }
}