{
  "contractName": "Tomatoken",
  "abi": [
    {
      "inputs": [],
      "stateMutability": "nonpayable",
      "type": "constructor"
    },
    {
      "anonymous": false,
      "inputs": [
        {
          "indexed": true,
          "internalType": "address",
          "name": "account",
          "type": "address"
        },
        {
          "indexed": true,
          "internalType": "address",
          "name": "operator",
          "type": "address"
        },
        {
          "indexed": false,
          "internalType": "bool",
          "name": "approved",
          "type": "bool"
        }
      ],
      "name": "ApprovalForAll",
      "type": "event"
    },
    {
      "anonymous": false,
      "inputs": [
        {
          "indexed": true,
          "internalType": "address",
          "name": "buyer",
          "type": "address"
        },
        {
          "indexed": false,
          "internalType": "uint256",
          "name": "amount",
          "type": "uint256"
        }
      ],
      "name": "TomatokenBought",
      "type": "event"
    },
    {
      "anonymous": false,
      "inputs": [
        {
          "indexed": true,
          "internalType": "address",
          "name": "buyer",
          "type": "address"
        },
        {
          "indexed": false,
          "internalType": "uint256",
          "name": "amount",
          "type": "uint256"
        }
      ],
      "name": "TomatokenRewarded",
      "type": "event"
    },
    {
      "anonymous": false,
      "inputs": [
        {
          "indexed": true,
          "internalType": "address",
          "name": "operator",
          "type": "address"
        },
        {
          "indexed": true,
          "internalType": "address",
          "name": "from",
          "type": "address"
        },
        {
          "indexed": true,
          "internalType": "address",
          "name": "to",
          "type": "address"
        },
        {
          "indexed": false,
          "internalType": "uint256[]",
          "name": "ids",
          "type": "uint256[]"
        },
        {
          "indexed": false,
          "internalType": "uint256[]",
          "name": "values",
          "type": "uint256[]"
        }
      ],
      "name": "TransferBatch",
      "type": "event"
    },
    {
      "anonymous": false,
      "inputs": [
        {
          "indexed": true,
          "internalType": "address",
          "name": "operator",
          "type": "address"
        },
        {
          "indexed": true,
          "internalType": "address",
          "name": "from",
          "type": "address"
        },
        {
          "indexed": true,
          "internalType": "address",
          "name": "to",
          "type": "address"
        },
        {
          "indexed": false,
          "internalType": "uint256",
          "name": "id",
          "type": "uint256"
        },
        {
          "indexed": false,
          "internalType": "uint256",
          "name": "value",
          "type": "uint256"
        }
      ],
      "name": "TransferSingle",
      "type": "event"
    },
    {
      "anonymous": false,
      "inputs": [
        {
          "indexed": false,
          "internalType": "string",
          "name": "value",
          "type": "string"
        },
        {
          "indexed": true,
          "internalType": "uint256",
          "name": "id",
          "type": "uint256"
        }
      ],
      "name": "URI",
      "type": "event"
    },
    {
      "inputs": [],
      "name": "TOMATOKENS",
      "outputs": [
        {
          "internalType": "uint256",
          "name": "",
          "type": "uint256"
        }
      ],
      "stateMutability": "view",
      "type": "function",
      "constant": true
    },
    {
      "inputs": [],
      "name": "TOMATOKEN_PRICE_IN_WEI",
      "outputs": [
        {
          "internalType": "uint256",
          "name": "",
          "type": "uint256"
        }
      ],
      "stateMutability": "view",
      "type": "function",
      "constant": true
    },
    {
      "inputs": [],
      "name": "TOMATOKEN_REWARD",
      "outputs": [
        {
          "internalType": "uint256",
          "name": "",
          "type": "uint256"
        }
      ],
      "stateMutability": "view",
      "type": "function",
      "constant": true
    },
    {
      "inputs": [
        {
          "internalType": "address",
          "name": "account",
          "type": "address"
        },
        {
          "internalType": "uint256",
          "name": "id",
          "type": "uint256"
        }
      ],
      "name": "balanceOf",
      "outputs": [
        {
          "internalType": "uint256",
          "name": "",
          "type": "uint256"
        }
      ],
      "stateMutability": "view",
      "type": "function",
      "constant": true
    },
    {
      "inputs": [
        {
          "internalType": "address[]",
          "name": "accounts",
          "type": "address[]"
        },
        {
          "internalType": "uint256[]",
          "name": "ids",
          "type": "uint256[]"
        }
      ],
      "name": "balanceOfBatch",
      "outputs": [
        {
          "internalType": "uint256[]",
          "name": "",
          "type": "uint256[]"
        }
      ],
      "stateMutability": "view",
      "type": "function",
      "constant": true
    },
    {
      "inputs": [
        {
          "internalType": "address",
          "name": "account",
          "type": "address"
        },
        {
          "internalType": "address",
          "name": "operator",
          "type": "address"
        }
      ],
      "name": "isApprovedForAll",
      "outputs": [
        {
          "internalType": "bool",
          "name": "",
          "type": "bool"
        }
      ],
      "stateMutability": "view",
      "type": "function",
      "constant": true
    },
    {
      "inputs": [
        {
          "internalType": "address",
          "name": "from",
          "type": "address"
        },
        {
          "internalType": "address",
          "name": "to",
          "type": "address"
        },
        {
          "internalType": "uint256[]",
          "name": "ids",
          "type": "uint256[]"
        },
        {
          "internalType": "uint256[]",
          "name": "amounts",
          "type": "uint256[]"
        },
        {
          "internalType": "bytes",
          "name": "data",
          "type": "bytes"
        }
      ],
      "name": "safeBatchTransferFrom",
      "outputs": [],
      "stateMutability": "nonpayable",
      "type": "function"
    },
    {
      "inputs": [
        {
          "internalType": "address",
          "name": "from",
          "type": "address"
        },
        {
          "internalType": "address",
          "name": "to",
          "type": "address"
        },
        {
          "internalType": "uint256",
          "name": "id",
          "type": "uint256"
        },
        {
          "internalType": "uint256",
          "name": "amount",
          "type": "uint256"
        },
        {
          "internalType": "bytes",
          "name": "data",
          "type": "bytes"
        }
      ],
      "name": "safeTransferFrom",
      "outputs": [],
      "stateMutability": "nonpayable",
      "type": "function"
    },
    {
      "inputs": [
        {
          "internalType": "address",
          "name": "operator",
          "type": "address"
        },
        {
          "internalType": "bool",
          "name": "approved",
          "type": "bool"
        }
      ],
      "name": "setApprovalForAll",
      "outputs": [],
      "stateMutability": "nonpayable",
      "type": "function"
    },
    {
      "inputs": [
        {
          "internalType": "bytes4",
          "name": "interfaceId",
          "type": "bytes4"
        }
      ],
      "name": "supportsInterface",
      "outputs": [
        {
          "internalType": "bool",
          "name": "",
          "type": "bool"
        }
      ],
      "stateMutability": "view",
      "type": "function",
      "constant": true
    },
    {
      "inputs": [
        {
          "internalType": "uint256",
          "name": "",
          "type": "uint256"
        }
      ],
      "name": "uri",
      "outputs": [
        {
          "internalType": "string",
          "name": "",
          "type": "string"
        }
      ],
      "stateMutability": "view",
      "type": "function",
      "constant": true
    },
    {
      "inputs": [],
      "name": "buyTokens",
      "outputs": [],
      "stateMutability": "payable",
      "type": "function",
      "payable": true
    },
    {
      "inputs": [],
      "name": "rewardTomatoken",
      "outputs": [],
      "stateMutability": "nonpayable",
      "type": "function"
    }
  ],
  "bytecode": "0x60806040523480156200001157600080fd5b506040518060200160405280600081525062000033816200006660201b60201c565b5062000060306000670de0b6b3a7640000604051806020016040528060008152506200008260201b60201c565b62000c6a565b80600290805190602001906200007e929190620004e5565b5050565b600073ffffffffffffffffffffffffffffffffffffffff168473ffffffffffffffffffffffffffffffffffffffff161415620000f5576040517f08c379a0000000000000000000000000000000000000000000000000000000008152600401620000ec906200061c565b60405180910390fd5b6000620001076200024760201b60201c565b9050620001408160008762000122886200024f60201b60201c565b62000133886200024f60201b60201c565b87620002d060201b60201c565b8260008086815260200190815260200160002060008773ffffffffffffffffffffffffffffffffffffffff1673ffffffffffffffffffffffffffffffffffffffff1681526020019081526020016000206000828254620001a1919062000677565b925050819055508473ffffffffffffffffffffffffffffffffffffffff16600073ffffffffffffffffffffffffffffffffffffffff168273ffffffffffffffffffffffffffffffffffffffff167fc3d58168c5ae7397731d063d5bbf3d657854427343f4c083240f7aacaa2d0f62878760405162000221929190620006e5565b60405180910390a46200024081600087878787620002d860201b60201c565b5050505050565b600033905090565b60606000600167ffffffffffffffff81111562000271576200027062000712565b5b604051908082528060200260200182016040528015620002a05781602001602082028036833780820191505090505b5090508281600081518110620002bb57620002ba62000741565b5b60200260200101818152505080915050919050565b505050505050565b620003048473ffffffffffffffffffffffffffffffffffffffff16620004d260201b62000b681760201c565b15620004ca578373ffffffffffffffffffffffffffffffffffffffff1663f23a6e6187878686866040518663ffffffff1660e01b81526004016200034d95949392919062000859565b6020604051808303816000875af19250505080156200038c57506040513d601f19601f8201168201806040525081019062000389919062000929565b60015b6200043e576200039b62000968565b806308c379a01415620003ff5750620003b3620009c3565b80620003c0575062000401565b806040517f08c379a0000000000000000000000000000000000000000000000000000000008152600401620003f6919062000ab1565b60405180910390fd5b505b6040517f08c379a0000000000000000000000000000000000000000000000000000000008152600401620004359062000b4b565b60405180910390fd5b63f23a6e6160e01b7bffffffffffffffffffffffffffffffffffffffffffffffffffffffff1916817bffffffffffffffffffffffffffffffffffffffffffffffffffffffff191614620004c8576040517f08c379a0000000000000000000000000000000000000000000000000000000008152600401620004bf9062000be3565b60405180910390fd5b505b505050505050565b600080823b905060008111915050919050565b828054620004f39062000c34565b90600052602060002090601f01602090048101928262000517576000855562000563565b82601f106200053257805160ff191683800117855562000563565b8280016001018555821562000563579182015b828111156200056257825182559160200191906001019062000545565b5b50905062000572919062000576565b5090565b5b808211156200059157600081600090555060010162000577565b5090565b600082825260208201905092915050565b7f455243313135353a206d696e7420746f20746865207a65726f2061646472657360008201527f7300000000000000000000000000000000000000000000000000000000000000602082015250565b60006200060460218362000595565b91506200061182620005a6565b604082019050919050565b600060208201905081810360008301526200063781620005f5565b9050919050565b6000819050919050565b7f4e487b7100000000000000000000000000000000000000000000000000000000600052601160045260246000fd5b600062000684826200063e565b915062000691836200063e565b9250827fffffffffffffffffffffffffffffffffffffffffffffffffffffffffffffffff03821115620006c957620006c862000648565b5b828201905092915050565b620006df816200063e565b82525050565b6000604082019050620006fc6000830185620006d4565b6200070b6020830184620006d4565b9392505050565b7f4e487b7100000000000000000000000000000000000000000000000000000000600052604160045260246000fd5b7f4e487b7100000000000000000000000000000000000000000000000000000000600052603260045260246000fd5b600073ffffffffffffffffffffffffffffffffffffffff82169050919050565b60006200079d8262000770565b9050919050565b620007af8162000790565b82525050565b600081519050919050565b600082825260208201905092915050565b60005b83811015620007f1578082015181840152602081019050620007d4565b8381111562000801576000848401525b50505050565b6000601f19601f8301169050919050565b60006200082582620007b5565b620008318185620007c0565b935062000843818560208601620007d1565b6200084e8162000807565b840191505092915050565b600060a082019050620008706000830188620007a4565b6200087f6020830187620007a4565b6200088e6040830186620006d4565b6200089d6060830185620006d4565b8181036080830152620008b1818462000818565b90509695505050505050565b6000604051905090565b600080fd5b60007fffffffff0000000000000000000000000000000000000000000000000000000082169050919050565b6200090381620008cc565b81146200090f57600080fd5b50565b6000815190506200092381620008f8565b92915050565b600060208284031215620009425762000941620008c7565b5b6000620009528482850162000912565b91505092915050565b60008160e01c9050919050565b600060033d11156200098a5760046000803e620009876000516200095b565b90505b90565b620009988262000807565b810181811067ffffffffffffffff82111715620009ba57620009b962000712565b5b80604052505050565b600060443d1015620009d55762000a62565b620009df620008bd565b60043d036004823e80513d602482011167ffffffffffffffff8211171562000a0957505062000a62565b808201805167ffffffffffffffff81111562000a29575050505062000a62565b80602083010160043d03850181111562000a4857505050505062000a62565b62000a59826020018501866200098d565b82955050505050505b90565b600081519050919050565b600062000a7d8262000a65565b62000a89818562000595565b935062000a9b818560208601620007d1565b62000aa68162000807565b840191505092915050565b6000602082019050818103600083015262000acd818462000a70565b905092915050565b7f455243313135353a207472616e7366657220746f206e6f6e204552433131353560008201527f526563656976657220696d706c656d656e746572000000000000000000000000602082015250565b600062000b3360348362000595565b915062000b408262000ad5565b604082019050919050565b6000602082019050818103600083015262000b668162000b24565b9050919050565b7f455243313135353a204552433131353552656365697665722072656a6563746560008201527f6420746f6b656e73000000000000000000000000000000000000000000000000602082015250565b600062000bcb60288362000595565b915062000bd88262000b6d565b604082019050919050565b6000602082019050818103600083015262000bfe8162000bbc565b9050919050565b7f4e487b7100000000000000000000000000000000000000000000000000000000600052602260045260246000fd5b6000600282049050600182168062000c4d57607f821691505b6020821081141562000c645762000c6362000c05565b5b50919050565b6129f88062000c7a6000396000f3fe6080604052600436106100c15760003560e01c806380b460cf1161007f578063d0febe4c11610059578063d0febe4c14610279578063d90edc3c14610283578063e985e9c5146102ae578063f242432a146102eb576100c1565b806380b460cf1461020e578063a22cb46514610225578063aa6cfc811461024e576100c1565b8062fdd58e146100c657806301ffc9a7146101035780630e89341c146101405780632eb2c2d61461017d5780634e1273f4146101a65780636dc7b5ce146101e3575b600080fd5b3480156100d257600080fd5b506100ed60048036038101906100e8919061165d565b610314565b6040516100fa91906116ac565b60405180910390f35b34801561010f57600080fd5b5061012a6004803603810190610125919061171f565b6103dd565b6040516101379190611767565b60405180910390f35b34801561014c57600080fd5b5061016760048036038101906101629190611782565b6104bf565b6040516101749190611848565b60405180910390f35b34801561018957600080fd5b506101a4600480360381019061019f9190611a67565b610553565b005b3480156101b257600080fd5b506101cd60048036038101906101c89190611bf9565b6105f4565b6040516101da9190611d2f565b60405180910390f35b3480156101ef57600080fd5b506101f861070d565b60405161020591906116ac565b60405180910390f35b34801561021a57600080fd5b50610223610712565b005b34801561023157600080fd5b5061024c60048036038101906102479190611d7d565b6107ce565b005b34801561025a57600080fd5b5061026361094f565b60405161027091906116ac565b60405180910390f35b610281610954565b005b34801561028f57600080fd5b50610298610a2a565b6040516102a591906116ac565b60405180910390f35b3480156102ba57600080fd5b506102d560048036038101906102d09190611dbd565b610a33565b6040516102e29190611767565b60405180910390f35b3480156102f757600080fd5b50610312600480360381019061030d9190611dfd565b610ac7565b005b60008073ffffffffffffffffffffffffffffffffffffffff168373ffffffffffffffffffffffffffffffffffffffff161415610385576040517f08c379a000000000000000000000000000000000000000000000000000000000815260040161037c90611f06565b60405180910390fd5b60008083815260200190815260200160002060008473ffffffffffffffffffffffffffffffffffffffff1673ffffffffffffffffffffffffffffffffffffffff16815260200190815260200160002054905092915050565b60007fd9b67a26000000000000000000000000000000000000000000000000000000007bffffffffffffffffffffffffffffffffffffffffffffffffffffffff1916827bffffffffffffffffffffffffffffffffffffffffffffffffffffffff191614806104a857507f0e89341c000000000000000000000000000000000000000000000000000000007bffffffffffffffffffffffffffffffffffffffffffffffffffffffff1916827bffffffffffffffffffffffffffffffffffffffffffffffffffffffff1916145b806104b857506104b782610b7b565b5b9050919050565b6060600280546104ce90611f55565b80601f01602080910402602001604051908101604052809291908181526020018280546104fa90611f55565b80156105475780601f1061051c57610100808354040283529160200191610547565b820191906000526020600020905b81548152906001019060200180831161052a57829003601f168201915b50505050509050919050565b61055b610be5565b73ffffffffffffffffffffffffffffffffffffffff168573ffffffffffffffffffffffffffffffffffffffff1614806105a157506105a08561059b610be5565b610a33565b5b6105e0576040517f08c379a00000000000000000000000000000000000000000000000000000000081526004016105d790611ff9565b60405180910390fd5b6105ed8585858585610bed565b5050505050565b6060815183511461063a576040517f08c379a00000000000000000000000000000000000000000000000000000000081526004016106319061208b565b60405180910390fd5b6000835167ffffffffffffffff8111156106575761065661186f565b5b6040519080825280602002602001820160405280156106855781602001602082028036833780820191505090505b50905060005b8451811015610702576106d28582815181106106aa576106a96120ab565b5b60200260200101518583815181106106c5576106c46120ab565b5b6020026020010151610314565b8282815181106106e5576106e46120ab565b5b602002602001018181525050806106fb90612109565b905061068b565b508091505092915050565b600081565b600061071f306000610314565b1161075f576040517f08c379a0000000000000000000000000000000000000000000000000000000008152600401610756906121c4565b60405180910390fd5b61077d30336000600160405180602001604052806000815250610f01565b3373ffffffffffffffffffffffffffffffffffffffff167f7042bc26e7793668a149cea810244564d4823d6838ec775dc80d1fde6a0e723860006040516107c491906116ac565b60405180910390a2565b8173ffffffffffffffffffffffffffffffffffffffff166107ed610be5565b73ffffffffffffffffffffffffffffffffffffffff161415610844576040517f08c379a000000000000000000000000000000000000000000000000000000000815260040161083b90612256565b60405180910390fd5b8060016000610851610be5565b73ffffffffffffffffffffffffffffffffffffffff1673ffffffffffffffffffffffffffffffffffffffff16815260200190815260200160002060008473ffffffffffffffffffffffffffffffffffffffff1673ffffffffffffffffffffffffffffffffffffffff16815260200190815260200160002060006101000a81548160ff0219169083151502179055508173ffffffffffffffffffffffffffffffffffffffff166108fe610be5565b73ffffffffffffffffffffffffffffffffffffffff167f17307eab39ab6107e8899845ad3d59bd9653f200f220920489ca2b5937696c31836040516109439190611767565b60405180910390a35050565b600081565b600064e8d4a510003461096791906122a5565b146109a7576040517f08c379a000000000000000000000000000000000000000000000000000000000815260040161099e90612322565b60405180910390fd5b600064e8d4a51000346109ba9190612342565b90506109d9303360008460405180602001604052806000815250610f01565b3373ffffffffffffffffffffffffffffffffffffffff167f5cb018552b2aca4b312acd5f7daa7f817d22471c9d80f0f727496bce2bbdd43782604051610a1f91906116ac565b60405180910390a250565b64e8d4a5100081565b6000600160008473ffffffffffffffffffffffffffffffffffffffff1673ffffffffffffffffffffffffffffffffffffffff16815260200190815260200160002060008373ffffffffffffffffffffffffffffffffffffffff1673ffffffffffffffffffffffffffffffffffffffff16815260200190815260200160002060009054906101000a900460ff16905092915050565b610acf610be5565b73ffffffffffffffffffffffffffffffffffffffff168573ffffffffffffffffffffffffffffffffffffffff161480610b155750610b1485610b0f610be5565b610a33565b5b610b54576040517f08c379a0000000000000000000000000000000000000000000000000000000008152600401610b4b906123e5565b60405180910390fd5b610b618585858585610f01565b5050505050565b600080823b905060008111915050919050565b60007f01ffc9a7000000000000000000000000000000000000000000000000000000007bffffffffffffffffffffffffffffffffffffffffffffffffffffffff1916827bffffffffffffffffffffffffffffffffffffffffffffffffffffffff1916149050919050565b600033905090565b8151835114610c31576040517f08c379a0000000000000000000000000000000000000000000000000000000008152600401610c2890612477565b60405180910390fd5b600073ffffffffffffffffffffffffffffffffffffffff168473ffffffffffffffffffffffffffffffffffffffff161415610ca1576040517f08c379a0000000000000000000000000000000000000000000000000000000008152600401610c9890612509565b60405180910390fd5b6000610cab610be5565b9050610cbb818787878787611183565b60005b8451811015610e6c576000858281518110610cdc57610cdb6120ab565b5b602002602001015190506000858381518110610cfb57610cfa6120ab565b5b60200260200101519050600080600084815260200190815260200160002060008b73ffffffffffffffffffffffffffffffffffffffff1673ffffffffffffffffffffffffffffffffffffffff16815260200190815260200160002054905081811015610d9c576040517f08c379a0000000000000000000000000000000000000000000000000000000008152600401610d939061259b565b60405180910390fd5b81810360008085815260200190815260200160002060008c73ffffffffffffffffffffffffffffffffffffffff1673ffffffffffffffffffffffffffffffffffffffff168152602001908152602001600020819055508160008085815260200190815260200160002060008b73ffffffffffffffffffffffffffffffffffffffff1673ffffffffffffffffffffffffffffffffffffffff1681526020019081526020016000206000828254610e5191906125bb565b9250508190555050505080610e6590612109565b9050610cbe565b508473ffffffffffffffffffffffffffffffffffffffff168673ffffffffffffffffffffffffffffffffffffffff168273ffffffffffffffffffffffffffffffffffffffff167f4a39dc06d4c0dbc64b70af90fd698a233a518aa5d07e595d983b8c0526c8f7fb8787604051610ee3929190612611565b60405180910390a4610ef981878787878761118b565b505050505050565b600073ffffffffffffffffffffffffffffffffffffffff168473ffffffffffffffffffffffffffffffffffffffff161415610f71576040517f08c379a0000000000000000000000000000000000000000000000000000000008152600401610f6890612509565b60405180910390fd5b6000610f7b610be5565b9050610f9b818787610f8c88611363565b610f9588611363565b87611183565b600080600086815260200190815260200160002060008873ffffffffffffffffffffffffffffffffffffffff1673ffffffffffffffffffffffffffffffffffffffff16815260200190815260200160002054905083811015611032576040517f08c379a00000000000000000000000000000000000000000000000000000000081526004016110299061259b565b60405180910390fd5b83810360008087815260200190815260200160002060008973ffffffffffffffffffffffffffffffffffffffff1673ffffffffffffffffffffffffffffffffffffffff168152602001908152602001600020819055508360008087815260200190815260200160002060008873ffffffffffffffffffffffffffffffffffffffff1673ffffffffffffffffffffffffffffffffffffffff16815260200190815260200160002060008282546110e791906125bb565b925050819055508573ffffffffffffffffffffffffffffffffffffffff168773ffffffffffffffffffffffffffffffffffffffff168373ffffffffffffffffffffffffffffffffffffffff167fc3d58168c5ae7397731d063d5bbf3d657854427343f4c083240f7aacaa2d0f628888604051611164929190612648565b60405180910390a461117a8288888888886113dd565b50505050505050565b505050505050565b6111aa8473ffffffffffffffffffffffffffffffffffffffff16610b68565b1561135b578373ffffffffffffffffffffffffffffffffffffffff1663bc197c8187878686866040518663ffffffff1660e01b81526004016111f09594939291906126d5565b6020604051808303816000875af192505050801561122c57506040513d601f19601f820116820180604052508101906112299190612752565b60015b6112d25761123861278c565b806308c379a01415611295575061124d6127ae565b806112585750611297565b806040517f08c379a000000000000000000000000000000000000000000000000000000000815260040161128c9190611848565b60405180910390fd5b505b6040517f08c379a00000000000000000000000000000000000000000000000000000000081526004016112c9906128b6565b60405180910390fd5b63bc197c8160e01b7bffffffffffffffffffffffffffffffffffffffffffffffffffffffff1916817bffffffffffffffffffffffffffffffffffffffffffffffffffffffff191614611359576040517f08c379a000000000000000000000000000000000000000000000000000000000815260040161135090612948565b60405180910390fd5b505b505050505050565b60606000600167ffffffffffffffff8111156113825761138161186f565b5b6040519080825280602002602001820160405280156113b05781602001602082028036833780820191505090505b50905082816000815181106113c8576113c76120ab565b5b60200260200101818152505080915050919050565b6113fc8473ffffffffffffffffffffffffffffffffffffffff16610b68565b156115ad578373ffffffffffffffffffffffffffffffffffffffff1663f23a6e6187878686866040518663ffffffff1660e01b8152600401611442959493929190612968565b6020604051808303816000875af192505050801561147e57506040513d601f19601f8201168201806040525081019061147b9190612752565b60015b6115245761148a61278c565b806308c379a014156114e7575061149f6127ae565b806114aa57506114e9565b806040517f08c379a00000000000000000000000000000000000000000000000000000000081526004016114de9190611848565b60405180910390fd5b505b6040517f08c379a000000000000000000000000000000000000000000000000000000000815260040161151b906128b6565b60405180910390fd5b63f23a6e6160e01b7bffffffffffffffffffffffffffffffffffffffffffffffffffffffff1916817bffffffffffffffffffffffffffffffffffffffffffffffffffffffff1916146115ab576040517f08c379a00000000000000000000000000000000000000000000000000000000081526004016115a290612948565b60405180910390fd5b505b505050505050565b6000604051905090565b600080fd5b600080fd5b600073ffffffffffffffffffffffffffffffffffffffff82169050919050565b60006115f4826115c9565b9050919050565b611604816115e9565b811461160f57600080fd5b50565b600081359050611621816115fb565b92915050565b6000819050919050565b61163a81611627565b811461164557600080fd5b50565b60008135905061165781611631565b92915050565b60008060408385031215611674576116736115bf565b5b600061168285828601611612565b925050602061169385828601611648565b9150509250929050565b6116a681611627565b82525050565b60006020820190506116c1600083018461169d565b92915050565b60007fffffffff0000000000000000000000000000000000000000000000000000000082169050919050565b6116fc816116c7565b811461170757600080fd5b50565b600081359050611719816116f3565b92915050565b600060208284031215611735576117346115bf565b5b60006117438482850161170a565b91505092915050565b60008115159050919050565b6117618161174c565b82525050565b600060208201905061177c6000830184611758565b92915050565b600060208284031215611798576117976115bf565b5b60006117a684828501611648565b91505092915050565b600081519050919050565b600082825260208201905092915050565b60005b838110156117e95780820151818401526020810190506117ce565b838111156117f8576000848401525b50505050565b6000601f19601f8301169050919050565b600061181a826117af565b61182481856117ba565b93506118348185602086016117cb565b61183d816117fe565b840191505092915050565b60006020820190508181036000830152611862818461180f565b905092915050565b600080fd5b7f4e487b7100000000000000000000000000000000000000000000000000000000600052604160045260246000fd5b6118a7826117fe565b810181811067ffffffffffffffff821117156118c6576118c561186f565b5b80604052505050565b60006118d96115b5565b90506118e5828261189e565b919050565b600067ffffffffffffffff8211156119055761190461186f565b5b602082029050602081019050919050565b600080fd5b600061192e611929846118ea565b6118cf565b9050808382526020820190506020840283018581111561195157611950611916565b5b835b8181101561197a57806119668882611648565b845260208401935050602081019050611953565b5050509392505050565b600082601f8301126119995761199861186a565b5b81356119a984826020860161191b565b91505092915050565b600080fd5b600067ffffffffffffffff8211156119d2576119d161186f565b5b6119db826117fe565b9050602081019050919050565b82818337600083830152505050565b6000611a0a611a05846119b7565b6118cf565b905082815260208101848484011115611a2657611a256119b2565b5b611a318482856119e8565b509392505050565b600082601f830112611a4e57611a4d61186a565b5b8135611a5e8482602086016119f7565b91505092915050565b600080600080600060a08688031215611a8357611a826115bf565b5b6000611a9188828901611612565b9550506020611aa288828901611612565b945050604086013567ffffffffffffffff811115611ac357611ac26115c4565b5b611acf88828901611984565b935050606086013567ffffffffffffffff811115611af057611aef6115c4565b5b611afc88828901611984565b925050608086013567ffffffffffffffff811115611b1d57611b1c6115c4565b5b611b2988828901611a39565b9150509295509295909350565b600067ffffffffffffffff821115611b5157611b5061186f565b5b602082029050602081019050919050565b6000611b75611b7084611b36565b6118cf565b90508083825260208201905060208402830185811115611b9857611b97611916565b5b835b81811015611bc15780611bad8882611612565b845260208401935050602081019050611b9a565b5050509392505050565b600082601f830112611be057611bdf61186a565b5b8135611bf0848260208601611b62565b91505092915050565b60008060408385031215611c1057611c0f6115bf565b5b600083013567ffffffffffffffff811115611c2e57611c2d6115c4565b5b611c3a85828601611bcb565b925050602083013567ffffffffffffffff811115611c5b57611c5a6115c4565b5b611c6785828601611984565b9150509250929050565b600081519050919050565b600082825260208201905092915050565b6000819050602082019050919050565b611ca681611627565b82525050565b6000611cb88383611c9d565b60208301905092915050565b6000602082019050919050565b6000611cdc82611c71565b611ce68185611c7c565b9350611cf183611c8d565b8060005b83811015611d22578151611d098882611cac565b9750611d1483611cc4565b925050600181019050611cf5565b5085935050505092915050565b60006020820190508181036000830152611d498184611cd1565b905092915050565b611d5a8161174c565b8114611d6557600080fd5b50565b600081359050611d7781611d51565b92915050565b60008060408385031215611d9457611d936115bf565b5b6000611da285828601611612565b9250506020611db385828601611d68565b9150509250929050565b60008060408385031215611dd457611dd36115bf565b5b6000611de285828601611612565b9250506020611df385828601611612565b9150509250929050565b600080600080600060a08688031215611e1957611e186115bf565b5b6000611e2788828901611612565b9550506020611e3888828901611612565b9450506040611e4988828901611648565b9350506060611e5a88828901611648565b925050608086013567ffffffffffffffff811115611e7b57611e7a6115c4565b5b611e8788828901611a39565b9150509295509295909350565b7f455243313135353a2062616c616e636520717565727920666f7220746865207a60008201527f65726f2061646472657373000000000000000000000000000000000000000000602082015250565b6000611ef0602b836117ba565b9150611efb82611e94565b604082019050919050565b60006020820190508181036000830152611f1f81611ee3565b9050919050565b7f4e487b7100000000000000000000000000000000000000000000000000000000600052602260045260246000fd5b60006002820490506001821680611f6d57607f821691505b60208210811415611f8157611f80611f26565b5b50919050565b7f455243313135353a207472616e736665722063616c6c6572206973206e6f742060008201527f6f776e6572206e6f7220617070726f7665640000000000000000000000000000602082015250565b6000611fe36032836117ba565b9150611fee82611f87565b604082019050919050565b6000602082019050818103600083015261201281611fd6565b9050919050565b7f455243313135353a206163636f756e747320616e6420696473206c656e67746860008201527f206d69736d617463680000000000000000000000000000000000000000000000602082015250565b60006120756029836117ba565b915061208082612019565b604082019050919050565b600060208201905081810360008301526120a481612068565b9050919050565b7f4e487b7100000000000000000000000000000000000000000000000000000000600052603260045260246000fd5b7f4e487b7100000000000000000000000000000000000000000000000000000000600052601160045260246000fd5b600061211482611627565b91507fffffffffffffffffffffffffffffffffffffffffffffffffffffffffffffffff821415612147576121466120da565b5b600182019050919050565b7f5468657265206973206e6f206d6f726520546f6d61746f6b656e20746f20726560008201527f7761726400000000000000000000000000000000000000000000000000000000602082015250565b60006121ae6024836117ba565b91506121b982612152565b604082019050919050565b600060208201905081810360008301526121dd816121a1565b9050919050565b7f455243313135353a2073657474696e6720617070726f76616c2073746174757360008201527f20666f722073656c660000000000000000000000000000000000000000000000602082015250565b60006122406029836117ba565b915061224b826121e4565b604082019050919050565b6000602082019050818103600083015261226f81612233565b9050919050565b7f4e487b7100000000000000000000000000000000000000000000000000000000600052601260045260246000fd5b60006122b082611627565b91506122bb83611627565b9250826122cb576122ca612276565b5b828206905092915050565b7f4f6e6c7920616363657074696e67207468652066756c6c207072696365000000600082015250565b600061230c601d836117ba565b9150612317826122d6565b602082019050919050565b6000602082019050818103600083015261233b816122ff565b9050919050565b600061234d82611627565b915061235883611627565b92508261236857612367612276565b5b828204905092915050565b7f455243313135353a2063616c6c6572206973206e6f74206f776e6572206e6f7260008201527f20617070726f7665640000000000000000000000000000000000000000000000602082015250565b60006123cf6029836117ba565b91506123da82612373565b604082019050919050565b600060208201905081810360008301526123fe816123c2565b9050919050565b7f455243313135353a2069647320616e6420616d6f756e7473206c656e6774682060008201527f6d69736d61746368000000000000000000000000000000000000000000000000602082015250565b60006124616028836117ba565b915061246c82612405565b604082019050919050565b6000602082019050818103600083015261249081612454565b9050919050565b7f455243313135353a207472616e7366657220746f20746865207a65726f20616460008201527f6472657373000000000000000000000000000000000000000000000000000000602082015250565b60006124f36025836117ba565b91506124fe82612497565b604082019050919050565b60006020820190508181036000830152612522816124e6565b9050919050565b7f455243313135353a20696e73756666696369656e742062616c616e636520666f60008201527f72207472616e7366657200000000000000000000000000000000000000000000602082015250565b6000612585602a836117ba565b915061259082612529565b604082019050919050565b600060208201905081810360008301526125b481612578565b9050919050565b60006125c682611627565b91506125d183611627565b9250827fffffffffffffffffffffffffffffffffffffffffffffffffffffffffffffffff03821115612606576126056120da565b5b828201905092915050565b6000604082019050818103600083015261262b8185611cd1565b9050818103602083015261263f8184611cd1565b90509392505050565b600060408201905061265d600083018561169d565b61266a602083018461169d565b9392505050565b61267a816115e9565b82525050565b600081519050919050565b600082825260208201905092915050565b60006126a782612680565b6126b1818561268b565b93506126c18185602086016117cb565b6126ca816117fe565b840191505092915050565b600060a0820190506126ea6000830188612671565b6126f76020830187612671565b81810360408301526127098186611cd1565b9050818103606083015261271d8185611cd1565b90508181036080830152612731818461269c565b90509695505050505050565b60008151905061274c816116f3565b92915050565b600060208284031215612768576127676115bf565b5b60006127768482850161273d565b91505092915050565b60008160e01c9050919050565b600060033d11156127ab5760046000803e6127a860005161277f565b90505b90565b600060443d10156127be57612841565b6127c66115b5565b60043d036004823e80513d602482011167ffffffffffffffff821117156127ee575050612841565b808201805167ffffffffffffffff81111561280c5750505050612841565b80602083010160043d038501811115612829575050505050612841565b6128388260200185018661189e565b82955050505050505b90565b7f455243313135353a207472616e7366657220746f206e6f6e204552433131353560008201527f526563656976657220696d706c656d656e746572000000000000000000000000602082015250565b60006128a06034836117ba565b91506128ab82612844565b604082019050919050565b600060208201905081810360008301526128cf81612893565b9050919050565b7f455243313135353a204552433131353552656365697665722072656a6563746560008201527f6420746f6b656e73000000000000000000000000000000000000000000000000602082015250565b60006129326028836117ba565b915061293d826128d6565b604082019050919050565b6000602082019050818103600083015261296181612925565b9050919050565b600060a08201905061297d6000830188612671565b61298a6020830187612671565b612997604083018661169d565b6129a4606083018561169d565b81810360808301526129b6818461269c565b9050969550505050505056fea2646970667358221220203a92a1f5533f2d4bc0d2c3b39507747f9791cfc371d034ca9613dd4a96950564736f6c634300080a0033",
  "immutableReferences": {},
  "source": "pragma solidity ^0.8.0;\n\nimport \"@openzeppelin/contracts/token/ERC1155/ERC1155.sol\";\n\ncontract Tomatoken is ERC1155 {\n\n\tuint public constant TOMATOKENS = 0;\n\tuint public constant TOMATOKEN_PRICE_IN_WEI = 10**12;\n\tuint public constant TOMATOKEN_REWARD = 0;\n\tevent TomatokenBought(address indexed buyer, uint amount);\n\tevent TomatokenRewarded(address indexed buyer, uint amount);\n\n\tconstructor() ERC1155(\"\") {\n\t\t// owner = msg.sender;\n\t\t_mint(address(this), TOMATOKENS, 10**18, \"\");\n\t}\n\n\tfunction buyTokens() public payable {\n\t\trequire(uint(msg.value) % TOMATOKEN_PRICE_IN_WEI == 0, \"Only accepting the full price\");\n\t\tuint amountOfTomatokens = uint(msg.value) / TOMATOKEN_PRICE_IN_WEI;\n\t\t_safeTransferFrom(address(this),  msg.sender, TOMATOKENS, amountOfTomatokens, \"\");\n\t\temit TomatokenBought(msg.sender, amountOfTomatokens);\n\t}\n\n\tfunction rewardTomatoken() public {\n\t\trequire(balanceOf(address(this), TOMATOKENS) > 0, \"There is no more Tomatoken to reward\");\n\t\t_safeTransferFrom(address(this), msg.sender, TOMATOKEN_REWARD, 1, \"\");\n\t\temit TomatokenRewarded(msg.sender, TOMATOKEN_REWARD);\n\t}\n}\n\n\n",
  "sourcePath": "/Users/lucha/code/tomatoken/contracts/Tomatoken.sol",
  "compiler": {
    "name": "solc",
    "version": "0.8.10+commit.fc410830.Emscripten.clang"
  },
  "schemaVersion": "3.4.3",
  "updatedAt": "2021-11-20T21:59:18.163Z",
  "networkType": "ethereum",
  "devdoc": {
    "kind": "dev",
    "methods": {
      "balanceOf(address,uint256)": {
        "details": "See {IERC1155-balanceOf}. Requirements: - `account` cannot be the zero address."
      },
      "balanceOfBatch(address[],uint256[])": {
        "details": "See {IERC1155-balanceOfBatch}. Requirements: - `accounts` and `ids` must have the same length."
      },
      "isApprovedForAll(address,address)": {
        "details": "See {IERC1155-isApprovedForAll}."
      },
      "safeBatchTransferFrom(address,address,uint256[],uint256[],bytes)": {
        "details": "See {IERC1155-safeBatchTransferFrom}."
      },
      "safeTransferFrom(address,address,uint256,uint256,bytes)": {
        "details": "See {IERC1155-safeTransferFrom}."
      },
      "setApprovalForAll(address,bool)": {
        "details": "See {IERC1155-setApprovalForAll}."
      },
      "supportsInterface(bytes4)": {
        "details": "See {IERC165-supportsInterface}."
      },
      "uri(uint256)": {
        "details": "See {IERC1155MetadataURI-uri}. This implementation returns the same URI for *all* token types. It relies on the token type ID substitution mechanism https://eips.ethereum.org/EIPS/eip-1155#metadata[defined in the EIP]. Clients calling this function must replace the `\\{id\\}` substring with the actual token type ID."
      }
    },
    "version": 1
  },
  "userdoc": {
    "kind": "user",
    "methods": {},
    "version": 1
  }
}