{
  "contractName": "Tomatoken",
  "abi": [
    {
      "inputs": [],
      "stateMutability": "nonpayable",
      "type": "constructor"
    },
    {
      "anonymous": false,
      "inputs": [
        {
          "indexed": true,
          "internalType": "address",
          "name": "account",
          "type": "address"
        },
        {
          "indexed": true,
          "internalType": "address",
          "name": "operator",
          "type": "address"
        },
        {
          "indexed": false,
          "internalType": "bool",
          "name": "approved",
          "type": "bool"
        }
      ],
      "name": "ApprovalForAll",
      "type": "event"
    },
    {
      "anonymous": false,
      "inputs": [
        {
          "indexed": true,
          "internalType": "address",
          "name": "operator",
          "type": "address"
        },
        {
          "indexed": true,
          "internalType": "address",
          "name": "from",
          "type": "address"
        },
        {
          "indexed": true,
          "internalType": "address",
          "name": "to",
          "type": "address"
        },
        {
          "indexed": false,
          "internalType": "uint256[]",
          "name": "ids",
          "type": "uint256[]"
        },
        {
          "indexed": false,
          "internalType": "uint256[]",
          "name": "values",
          "type": "uint256[]"
        }
      ],
      "name": "TransferBatch",
      "type": "event"
    },
    {
      "anonymous": false,
      "inputs": [
        {
          "indexed": true,
          "internalType": "address",
          "name": "operator",
          "type": "address"
        },
        {
          "indexed": true,
          "internalType": "address",
          "name": "from",
          "type": "address"
        },
        {
          "indexed": true,
          "internalType": "address",
          "name": "to",
          "type": "address"
        },
        {
          "indexed": false,
          "internalType": "uint256",
          "name": "id",
          "type": "uint256"
        },
        {
          "indexed": false,
          "internalType": "uint256",
          "name": "value",
          "type": "uint256"
        }
      ],
      "name": "TransferSingle",
      "type": "event"
    },
    {
      "anonymous": false,
      "inputs": [
        {
          "indexed": false,
          "internalType": "string",
          "name": "value",
          "type": "string"
        },
        {
          "indexed": true,
          "internalType": "uint256",
          "name": "id",
          "type": "uint256"
        }
      ],
      "name": "URI",
      "type": "event"
    },
    {
      "inputs": [],
      "name": "TOMATOKENS",
      "outputs": [
        {
          "internalType": "uint256",
          "name": "",
          "type": "uint256"
        }
      ],
      "stateMutability": "view",
      "type": "function"
    },
    {
      "inputs": [
        {
          "internalType": "address",
          "name": "account",
          "type": "address"
        },
        {
          "internalType": "uint256",
          "name": "id",
          "type": "uint256"
        }
      ],
      "name": "balanceOf",
      "outputs": [
        {
          "internalType": "uint256",
          "name": "",
          "type": "uint256"
        }
      ],
      "stateMutability": "view",
      "type": "function"
    },
    {
      "inputs": [
        {
          "internalType": "address[]",
          "name": "accounts",
          "type": "address[]"
        },
        {
          "internalType": "uint256[]",
          "name": "ids",
          "type": "uint256[]"
        }
      ],
      "name": "balanceOfBatch",
      "outputs": [
        {
          "internalType": "uint256[]",
          "name": "",
          "type": "uint256[]"
        }
      ],
      "stateMutability": "view",
      "type": "function"
    },
    {
      "inputs": [
        {
          "internalType": "address",
          "name": "account",
          "type": "address"
        },
        {
          "internalType": "address",
          "name": "operator",
          "type": "address"
        }
      ],
      "name": "isApprovedForAll",
      "outputs": [
        {
          "internalType": "bool",
          "name": "",
          "type": "bool"
        }
      ],
      "stateMutability": "view",
      "type": "function"
    },
    {
      "inputs": [
        {
          "internalType": "address",
          "name": "from",
          "type": "address"
        },
        {
          "internalType": "address",
          "name": "to",
          "type": "address"
        },
        {
          "internalType": "uint256[]",
          "name": "ids",
          "type": "uint256[]"
        },
        {
          "internalType": "uint256[]",
          "name": "amounts",
          "type": "uint256[]"
        },
        {
          "internalType": "bytes",
          "name": "data",
          "type": "bytes"
        }
      ],
      "name": "safeBatchTransferFrom",
      "outputs": [],
      "stateMutability": "nonpayable",
      "type": "function"
    },
    {
      "inputs": [
        {
          "internalType": "address",
          "name": "from",
          "type": "address"
        },
        {
          "internalType": "address",
          "name": "to",
          "type": "address"
        },
        {
          "internalType": "uint256",
          "name": "id",
          "type": "uint256"
        },
        {
          "internalType": "uint256",
          "name": "amount",
          "type": "uint256"
        },
        {
          "internalType": "bytes",
          "name": "data",
          "type": "bytes"
        }
      ],
      "name": "safeTransferFrom",
      "outputs": [],
      "stateMutability": "nonpayable",
      "type": "function"
    },
    {
      "inputs": [
        {
          "internalType": "address",
          "name": "operator",
          "type": "address"
        },
        {
          "internalType": "bool",
          "name": "approved",
          "type": "bool"
        }
      ],
      "name": "setApprovalForAll",
      "outputs": [],
      "stateMutability": "nonpayable",
      "type": "function"
    },
    {
      "inputs": [
        {
          "internalType": "bytes4",
          "name": "interfaceId",
          "type": "bytes4"
        }
      ],
      "name": "supportsInterface",
      "outputs": [
        {
          "internalType": "bool",
          "name": "",
          "type": "bool"
        }
      ],
      "stateMutability": "view",
      "type": "function"
    },
    {
      "inputs": [
        {
          "internalType": "uint256",
          "name": "",
          "type": "uint256"
        }
      ],
      "name": "uri",
      "outputs": [
        {
          "internalType": "string",
          "name": "",
          "type": "string"
        }
      ],
      "stateMutability": "view",
      "type": "function"
    }
  ],
  "bytecode": "0x60806040523480156200001157600080fd5b506040518060200160405280600081525062000033816200006660201b60201c565b5062000060336000670de0b6b3a7640000604051806020016040528060008152506200008260201b60201c565b62000c6a565b80600290805190602001906200007e929190620004e5565b5050565b600073ffffffffffffffffffffffffffffffffffffffff168473ffffffffffffffffffffffffffffffffffffffff161415620000f5576040517f08c379a0000000000000000000000000000000000000000000000000000000008152600401620000ec906200061c565b60405180910390fd5b6000620001076200024760201b60201c565b9050620001408160008762000122886200024f60201b60201c565b62000133886200024f60201b60201c565b87620002d060201b60201c565b8260008086815260200190815260200160002060008773ffffffffffffffffffffffffffffffffffffffff1673ffffffffffffffffffffffffffffffffffffffff1681526020019081526020016000206000828254620001a1919062000677565b925050819055508473ffffffffffffffffffffffffffffffffffffffff16600073ffffffffffffffffffffffffffffffffffffffff168273ffffffffffffffffffffffffffffffffffffffff167fc3d58168c5ae7397731d063d5bbf3d657854427343f4c083240f7aacaa2d0f62878760405162000221929190620006e5565b60405180910390a46200024081600087878787620002d860201b60201c565b5050505050565b600033905090565b60606000600167ffffffffffffffff81111562000271576200027062000712565b5b604051908082528060200260200182016040528015620002a05781602001602082028036833780820191505090505b5090508281600081518110620002bb57620002ba62000741565b5b60200260200101818152505080915050919050565b505050505050565b620003048473ffffffffffffffffffffffffffffffffffffffff16620004d260201b620008ad1760201c565b15620004ca578373ffffffffffffffffffffffffffffffffffffffff1663f23a6e6187878686866040518663ffffffff1660e01b81526004016200034d95949392919062000859565b6020604051808303816000875af19250505080156200038c57506040513d601f19601f8201168201806040525081019062000389919062000929565b60015b6200043e576200039b62000968565b806308c379a01415620003ff5750620003b3620009c3565b80620003c0575062000401565b806040517f08c379a0000000000000000000000000000000000000000000000000000000008152600401620003f6919062000ab1565b60405180910390fd5b505b6040517f08c379a0000000000000000000000000000000000000000000000000000000008152600401620004359062000b4b565b60405180910390fd5b63f23a6e6160e01b7bffffffffffffffffffffffffffffffffffffffffffffffffffffffff1916817bffffffffffffffffffffffffffffffffffffffffffffffffffffffff191614620004c8576040517f08c379a0000000000000000000000000000000000000000000000000000000008152600401620004bf9062000be3565b60405180910390fd5b505b505050505050565b600080823b905060008111915050919050565b828054620004f39062000c34565b90600052602060002090601f01602090048101928262000517576000855562000563565b82601f106200053257805160ff191683800117855562000563565b8280016001018555821562000563579182015b828111156200056257825182559160200191906001019062000545565b5b50905062000572919062000576565b5090565b5b808211156200059157600081600090555060010162000577565b5090565b600082825260208201905092915050565b7f455243313135353a206d696e7420746f20746865207a65726f2061646472657360008201527f7300000000000000000000000000000000000000000000000000000000000000602082015250565b60006200060460218362000595565b91506200061182620005a6565b604082019050919050565b600060208201905081810360008301526200063781620005f5565b9050919050565b6000819050919050565b7f4e487b7100000000000000000000000000000000000000000000000000000000600052601160045260246000fd5b600062000684826200063e565b915062000691836200063e565b9250827fffffffffffffffffffffffffffffffffffffffffffffffffffffffffffffffff03821115620006c957620006c862000648565b5b828201905092915050565b620006df816200063e565b82525050565b6000604082019050620006fc6000830185620006d4565b6200070b6020830184620006d4565b9392505050565b7f4e487b7100000000000000000000000000000000000000000000000000000000600052604160045260246000fd5b7f4e487b7100000000000000000000000000000000000000000000000000000000600052603260045260246000fd5b600073ffffffffffffffffffffffffffffffffffffffff82169050919050565b60006200079d8262000770565b9050919050565b620007af8162000790565b82525050565b600081519050919050565b600082825260208201905092915050565b60005b83811015620007f1578082015181840152602081019050620007d4565b8381111562000801576000848401525b50505050565b6000601f19601f8301169050919050565b60006200082582620007b5565b620008318185620007c0565b935062000843818560208601620007d1565b6200084e8162000807565b840191505092915050565b600060a082019050620008706000830188620007a4565b6200087f6020830187620007a4565b6200088e6040830186620006d4565b6200089d6060830185620006d4565b8181036080830152620008b1818462000818565b90509695505050505050565b6000604051905090565b600080fd5b60007fffffffff0000000000000000000000000000000000000000000000000000000082169050919050565b6200090381620008cc565b81146200090f57600080fd5b50565b6000815190506200092381620008f8565b92915050565b600060208284031215620009425762000941620008c7565b5b6000620009528482850162000912565b91505092915050565b60008160e01c9050919050565b600060033d11156200098a5760046000803e620009876000516200095b565b90505b90565b620009988262000807565b810181811067ffffffffffffffff82111715620009ba57620009b962000712565b5b80604052505050565b600060443d1015620009d55762000a62565b620009df620008bd565b60043d036004823e80513d602482011167ffffffffffffffff8211171562000a0957505062000a62565b808201805167ffffffffffffffff81111562000a29575050505062000a62565b80602083010160043d03850181111562000a4857505050505062000a62565b62000a59826020018501866200098d565b82955050505050505b90565b600081519050919050565b600062000a7d8262000a65565b62000a89818562000595565b935062000a9b818560208601620007d1565b62000aa68162000807565b840191505092915050565b6000602082019050818103600083015262000acd818462000a70565b905092915050565b7f455243313135353a207472616e7366657220746f206e6f6e204552433131353560008201527f526563656976657220696d706c656d656e746572000000000000000000000000602082015250565b600062000b3360348362000595565b915062000b408262000ad5565b604082019050919050565b6000602082019050818103600083015262000b668162000b24565b9050919050565b7f455243313135353a204552433131353552656365697665722072656a6563746560008201527f6420746f6b656e73000000000000000000000000000000000000000000000000602082015250565b600062000bcb60288362000595565b915062000bd88262000b6d565b604082019050919050565b6000602082019050818103600083015262000bfe8162000bbc565b9050919050565b7f4e487b7100000000000000000000000000000000000000000000000000000000600052602260045260246000fd5b6000600282049050600182168062000c4d57607f821691505b6020821081141562000c645762000c6362000c05565b5b50919050565b6125ae8062000c7a6000396000f3fe608060405234801561001057600080fd5b50600436106100925760003560e01c80634e1273f4116100665780634e1273f4146101435780636dc7b5ce14610173578063a22cb46514610191578063e985e9c5146101ad578063f242432a146101dd57610092565b8062fdd58e1461009757806301ffc9a7146100c75780630e89341c146100f75780632eb2c2d614610127575b600080fd5b6100b160048036038101906100ac91906113a2565b6101f9565b6040516100be91906113f1565b60405180910390f35b6100e160048036038101906100dc9190611464565b6102c2565b6040516100ee91906114ac565b60405180910390f35b610111600480360381019061010c91906114c7565b6103a4565b60405161011e919061158d565b60405180910390f35b610141600480360381019061013c91906117ac565b610438565b005b61015d6004803603810190610158919061193e565b6104d9565b60405161016a9190611a74565b60405180910390f35b61017b6105f2565b60405161018891906113f1565b60405180910390f35b6101ab60048036038101906101a69190611ac2565b6105f7565b005b6101c760048036038101906101c29190611b02565b610778565b6040516101d491906114ac565b60405180910390f35b6101f760048036038101906101f29190611b42565b61080c565b005b60008073ffffffffffffffffffffffffffffffffffffffff168373ffffffffffffffffffffffffffffffffffffffff16141561026a576040517f08c379a000000000000000000000000000000000000000000000000000000000815260040161026190611c4b565b60405180910390fd5b60008083815260200190815260200160002060008473ffffffffffffffffffffffffffffffffffffffff1673ffffffffffffffffffffffffffffffffffffffff16815260200190815260200160002054905092915050565b60007fd9b67a26000000000000000000000000000000000000000000000000000000007bffffffffffffffffffffffffffffffffffffffffffffffffffffffff1916827bffffffffffffffffffffffffffffffffffffffffffffffffffffffff1916148061038d57507f0e89341c000000000000000000000000000000000000000000000000000000007bffffffffffffffffffffffffffffffffffffffffffffffffffffffff1916827bffffffffffffffffffffffffffffffffffffffffffffffffffffffff1916145b8061039d575061039c826108c0565b5b9050919050565b6060600280546103b390611c9a565b80601f01602080910402602001604051908101604052809291908181526020018280546103df90611c9a565b801561042c5780601f106104015761010080835404028352916020019161042c565b820191906000526020600020905b81548152906001019060200180831161040f57829003601f168201915b50505050509050919050565b61044061092a565b73ffffffffffffffffffffffffffffffffffffffff168573ffffffffffffffffffffffffffffffffffffffff16148061048657506104858561048061092a565b610778565b5b6104c5576040517f08c379a00000000000000000000000000000000000000000000000000000000081526004016104bc90611d3e565b60405180910390fd5b6104d28585858585610932565b5050505050565b6060815183511461051f576040517f08c379a000000000000000000000000000000000000000000000000000000000815260040161051690611dd0565b60405180910390fd5b6000835167ffffffffffffffff81111561053c5761053b6115b4565b5b60405190808252806020026020018201604052801561056a5781602001602082028036833780820191505090505b50905060005b84518110156105e7576105b785828151811061058f5761058e611df0565b5b60200260200101518583815181106105aa576105a9611df0565b5b60200260200101516101f9565b8282815181106105ca576105c9611df0565b5b602002602001018181525050806105e090611e4e565b9050610570565b508091505092915050565b600081565b8173ffffffffffffffffffffffffffffffffffffffff1661061661092a565b73ffffffffffffffffffffffffffffffffffffffff16141561066d576040517f08c379a000000000000000000000000000000000000000000000000000000000815260040161066490611f09565b60405180910390fd5b806001600061067a61092a565b73ffffffffffffffffffffffffffffffffffffffff1673ffffffffffffffffffffffffffffffffffffffff16815260200190815260200160002060008473ffffffffffffffffffffffffffffffffffffffff1673ffffffffffffffffffffffffffffffffffffffff16815260200190815260200160002060006101000a81548160ff0219169083151502179055508173ffffffffffffffffffffffffffffffffffffffff1661072761092a565b73ffffffffffffffffffffffffffffffffffffffff167f17307eab39ab6107e8899845ad3d59bd9653f200f220920489ca2b5937696c318360405161076c91906114ac565b60405180910390a35050565b6000600160008473ffffffffffffffffffffffffffffffffffffffff1673ffffffffffffffffffffffffffffffffffffffff16815260200190815260200160002060008373ffffffffffffffffffffffffffffffffffffffff1673ffffffffffffffffffffffffffffffffffffffff16815260200190815260200160002060009054906101000a900460ff16905092915050565b61081461092a565b73ffffffffffffffffffffffffffffffffffffffff168573ffffffffffffffffffffffffffffffffffffffff16148061085a57506108598561085461092a565b610778565b5b610899576040517f08c379a000000000000000000000000000000000000000000000000000000000815260040161089090611f9b565b60405180910390fd5b6108a68585858585610c46565b5050505050565b600080823b905060008111915050919050565b60007f01ffc9a7000000000000000000000000000000000000000000000000000000007bffffffffffffffffffffffffffffffffffffffffffffffffffffffff1916827bffffffffffffffffffffffffffffffffffffffffffffffffffffffff1916149050919050565b600033905090565b8151835114610976576040517f08c379a000000000000000000000000000000000000000000000000000000000815260040161096d9061202d565b60405180910390fd5b600073ffffffffffffffffffffffffffffffffffffffff168473ffffffffffffffffffffffffffffffffffffffff1614156109e6576040517f08c379a00000000000000000000000000000000000000000000000000000000081526004016109dd906120bf565b60405180910390fd5b60006109f061092a565b9050610a00818787878787610ec8565b60005b8451811015610bb1576000858281518110610a2157610a20611df0565b5b602002602001015190506000858381518110610a4057610a3f611df0565b5b60200260200101519050600080600084815260200190815260200160002060008b73ffffffffffffffffffffffffffffffffffffffff1673ffffffffffffffffffffffffffffffffffffffff16815260200190815260200160002054905081811015610ae1576040517f08c379a0000000000000000000000000000000000000000000000000000000008152600401610ad890612151565b60405180910390fd5b81810360008085815260200190815260200160002060008c73ffffffffffffffffffffffffffffffffffffffff1673ffffffffffffffffffffffffffffffffffffffff168152602001908152602001600020819055508160008085815260200190815260200160002060008b73ffffffffffffffffffffffffffffffffffffffff1673ffffffffffffffffffffffffffffffffffffffff1681526020019081526020016000206000828254610b969190612171565b9250508190555050505080610baa90611e4e565b9050610a03565b508473ffffffffffffffffffffffffffffffffffffffff168673ffffffffffffffffffffffffffffffffffffffff168273ffffffffffffffffffffffffffffffffffffffff167f4a39dc06d4c0dbc64b70af90fd698a233a518aa5d07e595d983b8c0526c8f7fb8787604051610c289291906121c7565b60405180910390a4610c3e818787878787610ed0565b505050505050565b600073ffffffffffffffffffffffffffffffffffffffff168473ffffffffffffffffffffffffffffffffffffffff161415610cb6576040517f08c379a0000000000000000000000000000000000000000000000000000000008152600401610cad906120bf565b60405180910390fd5b6000610cc061092a565b9050610ce0818787610cd1886110a8565b610cda886110a8565b87610ec8565b600080600086815260200190815260200160002060008873ffffffffffffffffffffffffffffffffffffffff1673ffffffffffffffffffffffffffffffffffffffff16815260200190815260200160002054905083811015610d77576040517f08c379a0000000000000000000000000000000000000000000000000000000008152600401610d6e90612151565b60405180910390fd5b83810360008087815260200190815260200160002060008973ffffffffffffffffffffffffffffffffffffffff1673ffffffffffffffffffffffffffffffffffffffff168152602001908152602001600020819055508360008087815260200190815260200160002060008873ffffffffffffffffffffffffffffffffffffffff1673ffffffffffffffffffffffffffffffffffffffff1681526020019081526020016000206000828254610e2c9190612171565b925050819055508573ffffffffffffffffffffffffffffffffffffffff168773ffffffffffffffffffffffffffffffffffffffff168373ffffffffffffffffffffffffffffffffffffffff167fc3d58168c5ae7397731d063d5bbf3d657854427343f4c083240f7aacaa2d0f628888604051610ea99291906121fe565b60405180910390a4610ebf828888888888611122565b50505050505050565b505050505050565b610eef8473ffffffffffffffffffffffffffffffffffffffff166108ad565b156110a0578373ffffffffffffffffffffffffffffffffffffffff1663bc197c8187878686866040518663ffffffff1660e01b8152600401610f3595949392919061228b565b6020604051808303816000875af1925050508015610f7157506040513d601f19601f82011682018060405250810190610f6e9190612308565b60015b61101757610f7d612342565b806308c379a01415610fda5750610f92612364565b80610f9d5750610fdc565b806040517f08c379a0000000000000000000000000000000000000000000000000000000008152600401610fd1919061158d565b60405180910390fd5b505b6040517f08c379a000000000000000000000000000000000000000000000000000000000815260040161100e9061246c565b60405180910390fd5b63bc197c8160e01b7bffffffffffffffffffffffffffffffffffffffffffffffffffffffff1916817bffffffffffffffffffffffffffffffffffffffffffffffffffffffff19161461109e576040517f08c379a0000000000000000000000000000000000000000000000000000000008152600401611095906124fe565b60405180910390fd5b505b505050505050565b60606000600167ffffffffffffffff8111156110c7576110c66115b4565b5b6040519080825280602002602001820160405280156110f55781602001602082028036833780820191505090505b509050828160008151811061110d5761110c611df0565b5b60200260200101818152505080915050919050565b6111418473ffffffffffffffffffffffffffffffffffffffff166108ad565b156112f2578373ffffffffffffffffffffffffffffffffffffffff1663f23a6e6187878686866040518663ffffffff1660e01b815260040161118795949392919061251e565b6020604051808303816000875af19250505080156111c357506040513d601f19601f820116820180604052508101906111c09190612308565b60015b611269576111cf612342565b806308c379a0141561122c57506111e4612364565b806111ef575061122e565b806040517f08c379a0000000000000000000000000000000000000000000000000000000008152600401611223919061158d565b60405180910390fd5b505b6040517f08c379a00000000000000000000000000000000000000000000000000000000081526004016112609061246c565b60405180910390fd5b63f23a6e6160e01b7bffffffffffffffffffffffffffffffffffffffffffffffffffffffff1916817bffffffffffffffffffffffffffffffffffffffffffffffffffffffff1916146112f0576040517f08c379a00000000000000000000000000000000000000000000000000000000081526004016112e7906124fe565b60405180910390fd5b505b505050505050565b6000604051905090565b600080fd5b600080fd5b600073ffffffffffffffffffffffffffffffffffffffff82169050919050565b60006113398261130e565b9050919050565b6113498161132e565b811461135457600080fd5b50565b60008135905061136681611340565b92915050565b6000819050919050565b61137f8161136c565b811461138a57600080fd5b50565b60008135905061139c81611376565b92915050565b600080604083850312156113b9576113b8611304565b5b60006113c785828601611357565b92505060206113d88582860161138d565b9150509250929050565b6113eb8161136c565b82525050565b600060208201905061140660008301846113e2565b92915050565b60007fffffffff0000000000000000000000000000000000000000000000000000000082169050919050565b6114418161140c565b811461144c57600080fd5b50565b60008135905061145e81611438565b92915050565b60006020828403121561147a57611479611304565b5b60006114888482850161144f565b91505092915050565b60008115159050919050565b6114a681611491565b82525050565b60006020820190506114c1600083018461149d565b92915050565b6000602082840312156114dd576114dc611304565b5b60006114eb8482850161138d565b91505092915050565b600081519050919050565b600082825260208201905092915050565b60005b8381101561152e578082015181840152602081019050611513565b8381111561153d576000848401525b50505050565b6000601f19601f8301169050919050565b600061155f826114f4565b61156981856114ff565b9350611579818560208601611510565b61158281611543565b840191505092915050565b600060208201905081810360008301526115a78184611554565b905092915050565b600080fd5b7f4e487b7100000000000000000000000000000000000000000000000000000000600052604160045260246000fd5b6115ec82611543565b810181811067ffffffffffffffff8211171561160b5761160a6115b4565b5b80604052505050565b600061161e6112fa565b905061162a82826115e3565b919050565b600067ffffffffffffffff82111561164a576116496115b4565b5b602082029050602081019050919050565b600080fd5b600061167361166e8461162f565b611614565b905080838252602082019050602084028301858111156116965761169561165b565b5b835b818110156116bf57806116ab888261138d565b845260208401935050602081019050611698565b5050509392505050565b600082601f8301126116de576116dd6115af565b5b81356116ee848260208601611660565b91505092915050565b600080fd5b600067ffffffffffffffff821115611717576117166115b4565b5b61172082611543565b9050602081019050919050565b82818337600083830152505050565b600061174f61174a846116fc565b611614565b90508281526020810184848401111561176b5761176a6116f7565b5b61177684828561172d565b509392505050565b600082601f830112611793576117926115af565b5b81356117a384826020860161173c565b91505092915050565b600080600080600060a086880312156117c8576117c7611304565b5b60006117d688828901611357565b95505060206117e788828901611357565b945050604086013567ffffffffffffffff81111561180857611807611309565b5b611814888289016116c9565b935050606086013567ffffffffffffffff81111561183557611834611309565b5b611841888289016116c9565b925050608086013567ffffffffffffffff81111561186257611861611309565b5b61186e8882890161177e565b9150509295509295909350565b600067ffffffffffffffff821115611896576118956115b4565b5b602082029050602081019050919050565b60006118ba6118b58461187b565b611614565b905080838252602082019050602084028301858111156118dd576118dc61165b565b5b835b8181101561190657806118f28882611357565b8452602084019350506020810190506118df565b5050509392505050565b600082601f830112611925576119246115af565b5b81356119358482602086016118a7565b91505092915050565b6000806040838503121561195557611954611304565b5b600083013567ffffffffffffffff81111561197357611972611309565b5b61197f85828601611910565b925050602083013567ffffffffffffffff8111156119a05761199f611309565b5b6119ac858286016116c9565b9150509250929050565b600081519050919050565b600082825260208201905092915050565b6000819050602082019050919050565b6119eb8161136c565b82525050565b60006119fd83836119e2565b60208301905092915050565b6000602082019050919050565b6000611a21826119b6565b611a2b81856119c1565b9350611a36836119d2565b8060005b83811015611a67578151611a4e88826119f1565b9750611a5983611a09565b925050600181019050611a3a565b5085935050505092915050565b60006020820190508181036000830152611a8e8184611a16565b905092915050565b611a9f81611491565b8114611aaa57600080fd5b50565b600081359050611abc81611a96565b92915050565b60008060408385031215611ad957611ad8611304565b5b6000611ae785828601611357565b9250506020611af885828601611aad565b9150509250929050565b60008060408385031215611b1957611b18611304565b5b6000611b2785828601611357565b9250506020611b3885828601611357565b9150509250929050565b600080600080600060a08688031215611b5e57611b5d611304565b5b6000611b6c88828901611357565b9550506020611b7d88828901611357565b9450506040611b8e8882890161138d565b9350506060611b9f8882890161138d565b925050608086013567ffffffffffffffff811115611bc057611bbf611309565b5b611bcc8882890161177e565b9150509295509295909350565b7f455243313135353a2062616c616e636520717565727920666f7220746865207a60008201527f65726f2061646472657373000000000000000000000000000000000000000000602082015250565b6000611c35602b836114ff565b9150611c4082611bd9565b604082019050919050565b60006020820190508181036000830152611c6481611c28565b9050919050565b7f4e487b7100000000000000000000000000000000000000000000000000000000600052602260045260246000fd5b60006002820490506001821680611cb257607f821691505b60208210811415611cc657611cc5611c6b565b5b50919050565b7f455243313135353a207472616e736665722063616c6c6572206973206e6f742060008201527f6f776e6572206e6f7220617070726f7665640000000000000000000000000000602082015250565b6000611d286032836114ff565b9150611d3382611ccc565b604082019050919050565b60006020820190508181036000830152611d5781611d1b565b9050919050565b7f455243313135353a206163636f756e747320616e6420696473206c656e67746860008201527f206d69736d617463680000000000000000000000000000000000000000000000602082015250565b6000611dba6029836114ff565b9150611dc582611d5e565b604082019050919050565b60006020820190508181036000830152611de981611dad565b9050919050565b7f4e487b7100000000000000000000000000000000000000000000000000000000600052603260045260246000fd5b7f4e487b7100000000000000000000000000000000000000000000000000000000600052601160045260246000fd5b6000611e598261136c565b91507fffffffffffffffffffffffffffffffffffffffffffffffffffffffffffffffff821415611e8c57611e8b611e1f565b5b600182019050919050565b7f455243313135353a2073657474696e6720617070726f76616c2073746174757360008201527f20666f722073656c660000000000000000000000000000000000000000000000602082015250565b6000611ef36029836114ff565b9150611efe82611e97565b604082019050919050565b60006020820190508181036000830152611f2281611ee6565b9050919050565b7f455243313135353a2063616c6c6572206973206e6f74206f776e6572206e6f7260008201527f20617070726f7665640000000000000000000000000000000000000000000000602082015250565b6000611f856029836114ff565b9150611f9082611f29565b604082019050919050565b60006020820190508181036000830152611fb481611f78565b9050919050565b7f455243313135353a2069647320616e6420616d6f756e7473206c656e6774682060008201527f6d69736d61746368000000000000000000000000000000000000000000000000602082015250565b60006120176028836114ff565b915061202282611fbb565b604082019050919050565b600060208201905081810360008301526120468161200a565b9050919050565b7f455243313135353a207472616e7366657220746f20746865207a65726f20616460008201527f6472657373000000000000000000000000000000000000000000000000000000602082015250565b60006120a96025836114ff565b91506120b48261204d565b604082019050919050565b600060208201905081810360008301526120d88161209c565b9050919050565b7f455243313135353a20696e73756666696369656e742062616c616e636520666f60008201527f72207472616e7366657200000000000000000000000000000000000000000000602082015250565b600061213b602a836114ff565b9150612146826120df565b604082019050919050565b6000602082019050818103600083015261216a8161212e565b9050919050565b600061217c8261136c565b91506121878361136c565b9250827fffffffffffffffffffffffffffffffffffffffffffffffffffffffffffffffff038211156121bc576121bb611e1f565b5b828201905092915050565b600060408201905081810360008301526121e18185611a16565b905081810360208301526121f58184611a16565b90509392505050565b600060408201905061221360008301856113e2565b61222060208301846113e2565b9392505050565b6122308161132e565b82525050565b600081519050919050565b600082825260208201905092915050565b600061225d82612236565b6122678185612241565b9350612277818560208601611510565b61228081611543565b840191505092915050565b600060a0820190506122a06000830188612227565b6122ad6020830187612227565b81810360408301526122bf8186611a16565b905081810360608301526122d38185611a16565b905081810360808301526122e78184612252565b90509695505050505050565b60008151905061230281611438565b92915050565b60006020828403121561231e5761231d611304565b5b600061232c848285016122f3565b91505092915050565b60008160e01c9050919050565b600060033d11156123615760046000803e61235e600051612335565b90505b90565b600060443d1015612374576123f7565b61237c6112fa565b60043d036004823e80513d602482011167ffffffffffffffff821117156123a45750506123f7565b808201805167ffffffffffffffff8111156123c257505050506123f7565b80602083010160043d0385018111156123df5750505050506123f7565b6123ee826020018501866115e3565b82955050505050505b90565b7f455243313135353a207472616e7366657220746f206e6f6e204552433131353560008201527f526563656976657220696d706c656d656e746572000000000000000000000000602082015250565b60006124566034836114ff565b9150612461826123fa565b604082019050919050565b6000602082019050818103600083015261248581612449565b9050919050565b7f455243313135353a204552433131353552656365697665722072656a6563746560008201527f6420746f6b656e73000000000000000000000000000000000000000000000000602082015250565b60006124e86028836114ff565b91506124f38261248c565b604082019050919050565b60006020820190508181036000830152612517816124db565b9050919050565b600060a0820190506125336000830188612227565b6125406020830187612227565b61254d60408301866113e2565b61255a60608301856113e2565b818103608083015261256c8184612252565b9050969550505050505056fea2646970667358221220f0f5a5c11abe3049f84e4ce540d47039fe40169d7a36d2a31919e61ad1d2d10564736f6c634300080a0033",
  "immutableReferences": {},
  "source": "pragma solidity ^0.8.0;\n\nimport \"@openzeppelin/contracts/token/ERC1155/ERC1155.sol\";\n\ncontract Tomatoken is ERC1155 {\n\tuint public constant TOMATOKENS = 0;\n\n\tconstructor() ERC1155(\"\") {\n\t\t_mint(msg.sender, TOMATOKENS, 10**18, \"\");\n\t}\n}",
  "sourcePath": "/Users/lucha/code/tomatoken/contracts/Tomatoken.sol",
  "compiler": {
    "name": "solc",
    "version": "0.8.10+commit.fc410830.Emscripten.clang"
  },
  "schemaVersion": "3.4.3",
  "updatedAt": "2021-11-12T17:34:20.984Z",
  "devdoc": {
    "kind": "dev",
    "methods": {
      "balanceOf(address,uint256)": {
        "details": "See {IERC1155-balanceOf}. Requirements: - `account` cannot be the zero address."
      },
      "balanceOfBatch(address[],uint256[])": {
        "details": "See {IERC1155-balanceOfBatch}. Requirements: - `accounts` and `ids` must have the same length."
      },
      "isApprovedForAll(address,address)": {
        "details": "See {IERC1155-isApprovedForAll}."
      },
      "safeBatchTransferFrom(address,address,uint256[],uint256[],bytes)": {
        "details": "See {IERC1155-safeBatchTransferFrom}."
      },
      "safeTransferFrom(address,address,uint256,uint256,bytes)": {
        "details": "See {IERC1155-safeTransferFrom}."
      },
      "setApprovalForAll(address,bool)": {
        "details": "See {IERC1155-setApprovalForAll}."
      },
      "supportsInterface(bytes4)": {
        "details": "See {IERC165-supportsInterface}."
      },
      "uri(uint256)": {
        "details": "See {IERC1155MetadataURI-uri}. This implementation returns the same URI for *all* token types. It relies on the token type ID substitution mechanism https://eips.ethereum.org/EIPS/eip-1155#metadata[defined in the EIP]. Clients calling this function must replace the `\\{id\\}` substring with the actual token type ID."
      }
    },
    "version": 1
  },
  "userdoc": {
    "kind": "user",
    "methods": {},
    "version": 1
  }
}