{
  "contractName": "Tomatoken",
  "abi": [
    {
      "inputs": [],
      "stateMutability": "nonpayable",
      "type": "constructor"
    },
    {
      "anonymous": false,
      "inputs": [
        {
          "indexed": true,
          "internalType": "address",
          "name": "account",
          "type": "address"
        },
        {
          "indexed": true,
          "internalType": "address",
          "name": "operator",
          "type": "address"
        },
        {
          "indexed": false,
          "internalType": "bool",
          "name": "approved",
          "type": "bool"
        }
      ],
      "name": "ApprovalForAll",
      "type": "event"
    },
    {
      "anonymous": false,
      "inputs": [
        {
          "indexed": true,
          "internalType": "address",
          "name": "operator",
          "type": "address"
        },
        {
          "indexed": true,
          "internalType": "address",
          "name": "from",
          "type": "address"
        },
        {
          "indexed": true,
          "internalType": "address",
          "name": "to",
          "type": "address"
        },
        {
          "indexed": false,
          "internalType": "uint256[]",
          "name": "ids",
          "type": "uint256[]"
        },
        {
          "indexed": false,
          "internalType": "uint256[]",
          "name": "values",
          "type": "uint256[]"
        }
      ],
      "name": "TransferBatch",
      "type": "event"
    },
    {
      "anonymous": false,
      "inputs": [
        {
          "indexed": true,
          "internalType": "address",
          "name": "operator",
          "type": "address"
        },
        {
          "indexed": true,
          "internalType": "address",
          "name": "from",
          "type": "address"
        },
        {
          "indexed": true,
          "internalType": "address",
          "name": "to",
          "type": "address"
        },
        {
          "indexed": false,
          "internalType": "uint256",
          "name": "id",
          "type": "uint256"
        },
        {
          "indexed": false,
          "internalType": "uint256",
          "name": "value",
          "type": "uint256"
        }
      ],
      "name": "TransferSingle",
      "type": "event"
    },
    {
      "anonymous": false,
      "inputs": [
        {
          "indexed": false,
          "internalType": "string",
          "name": "value",
          "type": "string"
        },
        {
          "indexed": true,
          "internalType": "uint256",
          "name": "id",
          "type": "uint256"
        }
      ],
      "name": "URI",
      "type": "event"
    },
    {
      "inputs": [],
      "name": "TOMATOKENS",
      "outputs": [
        {
          "internalType": "uint256",
          "name": "",
          "type": "uint256"
        }
      ],
      "stateMutability": "view",
      "type": "function",
      "constant": true
    },
    {
      "inputs": [],
      "name": "TOMATOKEN_PRICE_IN_WEI",
      "outputs": [
        {
          "internalType": "uint256",
          "name": "",
          "type": "uint256"
        }
      ],
      "stateMutability": "view",
      "type": "function",
      "constant": true
    },
    {
      "inputs": [
        {
          "internalType": "address",
          "name": "account",
          "type": "address"
        },
        {
          "internalType": "uint256",
          "name": "id",
          "type": "uint256"
        }
      ],
      "name": "balanceOf",
      "outputs": [
        {
          "internalType": "uint256",
          "name": "",
          "type": "uint256"
        }
      ],
      "stateMutability": "view",
      "type": "function",
      "constant": true
    },
    {
      "inputs": [
        {
          "internalType": "address[]",
          "name": "accounts",
          "type": "address[]"
        },
        {
          "internalType": "uint256[]",
          "name": "ids",
          "type": "uint256[]"
        }
      ],
      "name": "balanceOfBatch",
      "outputs": [
        {
          "internalType": "uint256[]",
          "name": "",
          "type": "uint256[]"
        }
      ],
      "stateMutability": "view",
      "type": "function",
      "constant": true
    },
    {
      "inputs": [
        {
          "internalType": "address",
          "name": "account",
          "type": "address"
        },
        {
          "internalType": "address",
          "name": "operator",
          "type": "address"
        }
      ],
      "name": "isApprovedForAll",
      "outputs": [
        {
          "internalType": "bool",
          "name": "",
          "type": "bool"
        }
      ],
      "stateMutability": "view",
      "type": "function",
      "constant": true
    },
    {
      "inputs": [
        {
          "internalType": "address",
          "name": "from",
          "type": "address"
        },
        {
          "internalType": "address",
          "name": "to",
          "type": "address"
        },
        {
          "internalType": "uint256[]",
          "name": "ids",
          "type": "uint256[]"
        },
        {
          "internalType": "uint256[]",
          "name": "amounts",
          "type": "uint256[]"
        },
        {
          "internalType": "bytes",
          "name": "data",
          "type": "bytes"
        }
      ],
      "name": "safeBatchTransferFrom",
      "outputs": [],
      "stateMutability": "nonpayable",
      "type": "function"
    },
    {
      "inputs": [
        {
          "internalType": "address",
          "name": "from",
          "type": "address"
        },
        {
          "internalType": "address",
          "name": "to",
          "type": "address"
        },
        {
          "internalType": "uint256",
          "name": "id",
          "type": "uint256"
        },
        {
          "internalType": "uint256",
          "name": "amount",
          "type": "uint256"
        },
        {
          "internalType": "bytes",
          "name": "data",
          "type": "bytes"
        }
      ],
      "name": "safeTransferFrom",
      "outputs": [],
      "stateMutability": "nonpayable",
      "type": "function"
    },
    {
      "inputs": [
        {
          "internalType": "address",
          "name": "operator",
          "type": "address"
        },
        {
          "internalType": "bool",
          "name": "approved",
          "type": "bool"
        }
      ],
      "name": "setApprovalForAll",
      "outputs": [],
      "stateMutability": "nonpayable",
      "type": "function"
    },
    {
      "inputs": [
        {
          "internalType": "bytes4",
          "name": "interfaceId",
          "type": "bytes4"
        }
      ],
      "name": "supportsInterface",
      "outputs": [
        {
          "internalType": "bool",
          "name": "",
          "type": "bool"
        }
      ],
      "stateMutability": "view",
      "type": "function",
      "constant": true
    },
    {
      "inputs": [
        {
          "internalType": "uint256",
          "name": "",
          "type": "uint256"
        }
      ],
      "name": "uri",
      "outputs": [
        {
          "internalType": "string",
          "name": "",
          "type": "string"
        }
      ],
      "stateMutability": "view",
      "type": "function",
      "constant": true
    },
    {
      "inputs": [],
      "name": "buyTokens",
      "outputs": [],
      "stateMutability": "payable",
      "type": "function",
      "payable": true
    }
  ],
  "bytecode": "0x60806040523480156200001157600080fd5b506040518060200160405280600081525062000033816200006660201b60201c565b5062000060306000670de0b6b3a7640000604051806020016040528060008152506200008260201b60201c565b62000c6a565b80600290805190602001906200007e929190620004e5565b5050565b600073ffffffffffffffffffffffffffffffffffffffff168473ffffffffffffffffffffffffffffffffffffffff161415620000f5576040517f08c379a0000000000000000000000000000000000000000000000000000000008152600401620000ec906200061c565b60405180910390fd5b6000620001076200024760201b60201c565b9050620001408160008762000122886200024f60201b60201c565b62000133886200024f60201b60201c565b87620002d060201b60201c565b8260008086815260200190815260200160002060008773ffffffffffffffffffffffffffffffffffffffff1673ffffffffffffffffffffffffffffffffffffffff1681526020019081526020016000206000828254620001a1919062000677565b925050819055508473ffffffffffffffffffffffffffffffffffffffff16600073ffffffffffffffffffffffffffffffffffffffff168273ffffffffffffffffffffffffffffffffffffffff167fc3d58168c5ae7397731d063d5bbf3d657854427343f4c083240f7aacaa2d0f62878760405162000221929190620006e5565b60405180910390a46200024081600087878787620002d860201b60201c565b5050505050565b600033905090565b60606000600167ffffffffffffffff81111562000271576200027062000712565b5b604051908082528060200260200182016040528015620002a05781602001602082028036833780820191505090505b5090508281600081518110620002bb57620002ba62000741565b5b60200260200101818152505080915050919050565b505050505050565b620003048473ffffffffffffffffffffffffffffffffffffffff16620004d260201b620009f11760201c565b15620004ca578373ffffffffffffffffffffffffffffffffffffffff1663f23a6e6187878686866040518663ffffffff1660e01b81526004016200034d95949392919062000859565b6020604051808303816000875af19250505080156200038c57506040513d601f19601f8201168201806040525081019062000389919062000929565b60015b6200043e576200039b62000968565b806308c379a01415620003ff5750620003b3620009c3565b80620003c0575062000401565b806040517f08c379a0000000000000000000000000000000000000000000000000000000008152600401620003f6919062000ab1565b60405180910390fd5b505b6040517f08c379a0000000000000000000000000000000000000000000000000000000008152600401620004359062000b4b565b60405180910390fd5b63f23a6e6160e01b7bffffffffffffffffffffffffffffffffffffffffffffffffffffffff1916817bffffffffffffffffffffffffffffffffffffffffffffffffffffffff191614620004c8576040517f08c379a0000000000000000000000000000000000000000000000000000000008152600401620004bf9062000be3565b60405180910390fd5b505b505050505050565b600080823b905060008111915050919050565b828054620004f39062000c34565b90600052602060002090601f01602090048101928262000517576000855562000563565b82601f106200053257805160ff191683800117855562000563565b8280016001018555821562000563579182015b828111156200056257825182559160200191906001019062000545565b5b50905062000572919062000576565b5090565b5b808211156200059157600081600090555060010162000577565b5090565b600082825260208201905092915050565b7f455243313135353a206d696e7420746f20746865207a65726f2061646472657360008201527f7300000000000000000000000000000000000000000000000000000000000000602082015250565b60006200060460218362000595565b91506200061182620005a6565b604082019050919050565b600060208201905081810360008301526200063781620005f5565b9050919050565b6000819050919050565b7f4e487b7100000000000000000000000000000000000000000000000000000000600052601160045260246000fd5b600062000684826200063e565b915062000691836200063e565b9250827fffffffffffffffffffffffffffffffffffffffffffffffffffffffffffffffff03821115620006c957620006c862000648565b5b828201905092915050565b620006df816200063e565b82525050565b6000604082019050620006fc6000830185620006d4565b6200070b6020830184620006d4565b9392505050565b7f4e487b7100000000000000000000000000000000000000000000000000000000600052604160045260246000fd5b7f4e487b7100000000000000000000000000000000000000000000000000000000600052603260045260246000fd5b600073ffffffffffffffffffffffffffffffffffffffff82169050919050565b60006200079d8262000770565b9050919050565b620007af8162000790565b82525050565b600081519050919050565b600082825260208201905092915050565b60005b83811015620007f1578082015181840152602081019050620007d4565b8381111562000801576000848401525b50505050565b6000601f19601f8301169050919050565b60006200082582620007b5565b620008318185620007c0565b935062000843818560208601620007d1565b6200084e8162000807565b840191505092915050565b600060a082019050620008706000830188620007a4565b6200087f6020830187620007a4565b6200088e6040830186620006d4565b6200089d6060830185620006d4565b8181036080830152620008b1818462000818565b90509695505050505050565b6000604051905090565b600080fd5b60007fffffffff0000000000000000000000000000000000000000000000000000000082169050919050565b6200090381620008cc565b81146200090f57600080fd5b50565b6000815190506200092381620008f8565b92915050565b600060208284031215620009425762000941620008c7565b5b6000620009528482850162000912565b91505092915050565b60008160e01c9050919050565b600060033d11156200098a5760046000803e620009876000516200095b565b90505b90565b620009988262000807565b810181811067ffffffffffffffff82111715620009ba57620009b962000712565b5b80604052505050565b600060443d1015620009d55762000a62565b620009df620008bd565b60043d036004823e80513d602482011167ffffffffffffffff8211171562000a0957505062000a62565b808201805167ffffffffffffffff81111562000a29575050505062000a62565b80602083010160043d03850181111562000a4857505050505062000a62565b62000a59826020018501866200098d565b82955050505050505b90565b600081519050919050565b600062000a7d8262000a65565b62000a89818562000595565b935062000a9b818560208601620007d1565b62000aa68162000807565b840191505092915050565b6000602082019050818103600083015262000acd818462000a70565b905092915050565b7f455243313135353a207472616e7366657220746f206e6f6e204552433131353560008201527f526563656976657220696d706c656d656e746572000000000000000000000000602082015250565b600062000b3360348362000595565b915062000b408262000ad5565b604082019050919050565b6000602082019050818103600083015262000b668162000b24565b9050919050565b7f455243313135353a204552433131353552656365697665722072656a6563746560008201527f6420746f6b656e73000000000000000000000000000000000000000000000000602082015250565b600062000bcb60288362000595565b915062000bd88262000b6d565b604082019050919050565b6000602082019050818103600083015262000bfe8162000bbc565b9050919050565b7f4e487b7100000000000000000000000000000000000000000000000000000000600052602260045260246000fd5b6000600282049050600182168062000c4d57607f821691505b6020821081141562000c645762000c6362000c05565b5b50919050565b6127ef8062000c7a6000396000f3fe60806040526004361061009b5760003560e01c80636dc7b5ce116100645780636dc7b5ce146101bd578063a22cb465146101e8578063d0febe4c14610211578063d90edc3c1461021b578063e985e9c514610246578063f242432a146102835761009b565b8062fdd58e146100a057806301ffc9a7146100dd5780630e89341c1461011a5780632eb2c2d6146101575780634e1273f414610180575b600080fd5b3480156100ac57600080fd5b506100c760048036038101906100c291906114e6565b6102ac565b6040516100d49190611535565b60405180910390f35b3480156100e957600080fd5b5061010460048036038101906100ff91906115a8565b610375565b60405161011191906115f0565b60405180910390f35b34801561012657600080fd5b50610141600480360381019061013c919061160b565b610457565b60405161014e91906116d1565b60405180910390f35b34801561016357600080fd5b5061017e600480360381019061017991906118f0565b6104eb565b005b34801561018c57600080fd5b506101a760048036038101906101a29190611a82565b61058c565b6040516101b49190611bb8565b60405180910390f35b3480156101c957600080fd5b506101d26106a5565b6040516101df9190611535565b60405180910390f35b3480156101f457600080fd5b5061020f600480360381019061020a9190611c06565b6106aa565b005b61021961082b565b005b34801561022757600080fd5b506102306108b3565b60405161023d9190611535565b60405180910390f35b34801561025257600080fd5b5061026d60048036038101906102689190611c46565b6108bc565b60405161027a91906115f0565b60405180910390f35b34801561028f57600080fd5b506102aa60048036038101906102a59190611c86565b610950565b005b60008073ffffffffffffffffffffffffffffffffffffffff168373ffffffffffffffffffffffffffffffffffffffff16141561031d576040517f08c379a000000000000000000000000000000000000000000000000000000000815260040161031490611d8f565b60405180910390fd5b60008083815260200190815260200160002060008473ffffffffffffffffffffffffffffffffffffffff1673ffffffffffffffffffffffffffffffffffffffff16815260200190815260200160002054905092915050565b60007fd9b67a26000000000000000000000000000000000000000000000000000000007bffffffffffffffffffffffffffffffffffffffffffffffffffffffff1916827bffffffffffffffffffffffffffffffffffffffffffffffffffffffff1916148061044057507f0e89341c000000000000000000000000000000000000000000000000000000007bffffffffffffffffffffffffffffffffffffffffffffffffffffffff1916827bffffffffffffffffffffffffffffffffffffffffffffffffffffffff1916145b80610450575061044f82610a04565b5b9050919050565b60606002805461046690611dde565b80601f016020809104026020016040519081016040528092919081815260200182805461049290611dde565b80156104df5780601f106104b4576101008083540402835291602001916104df565b820191906000526020600020905b8154815290600101906020018083116104c257829003601f168201915b50505050509050919050565b6104f3610a6e565b73ffffffffffffffffffffffffffffffffffffffff168573ffffffffffffffffffffffffffffffffffffffff161480610539575061053885610533610a6e565b6108bc565b5b610578576040517f08c379a000000000000000000000000000000000000000000000000000000000815260040161056f90611e82565b60405180910390fd5b6105858585858585610a76565b5050505050565b606081518351146105d2576040517f08c379a00000000000000000000000000000000000000000000000000000000081526004016105c990611f14565b60405180910390fd5b6000835167ffffffffffffffff8111156105ef576105ee6116f8565b5b60405190808252806020026020018201604052801561061d5781602001602082028036833780820191505090505b50905060005b845181101561069a5761066a85828151811061064257610641611f34565b5b602002602001015185838151811061065d5761065c611f34565b5b60200260200101516102ac565b82828151811061067d5761067c611f34565b5b6020026020010181815250508061069390611f92565b9050610623565b508091505092915050565b600081565b8173ffffffffffffffffffffffffffffffffffffffff166106c9610a6e565b73ffffffffffffffffffffffffffffffffffffffff161415610720576040517f08c379a00000000000000000000000000000000000000000000000000000000081526004016107179061204d565b60405180910390fd5b806001600061072d610a6e565b73ffffffffffffffffffffffffffffffffffffffff1673ffffffffffffffffffffffffffffffffffffffff16815260200190815260200160002060008473ffffffffffffffffffffffffffffffffffffffff1673ffffffffffffffffffffffffffffffffffffffff16815260200190815260200160002060006101000a81548160ff0219169083151502179055508173ffffffffffffffffffffffffffffffffffffffff166107da610a6e565b73ffffffffffffffffffffffffffffffffffffffff167f17307eab39ab6107e8899845ad3d59bd9653f200f220920489ca2b5937696c318360405161081f91906115f0565b60405180910390a35050565b600064e8d4a510003461083e919061209c565b1461087e576040517f08c379a000000000000000000000000000000000000000000000000000000000815260040161087590612119565b60405180910390fd5b600064e8d4a51000346108919190612139565b90506108b0303360008460405180602001604052806000815250610d8a565b50565b64e8d4a5100081565b6000600160008473ffffffffffffffffffffffffffffffffffffffff1673ffffffffffffffffffffffffffffffffffffffff16815260200190815260200160002060008373ffffffffffffffffffffffffffffffffffffffff1673ffffffffffffffffffffffffffffffffffffffff16815260200190815260200160002060009054906101000a900460ff16905092915050565b610958610a6e565b73ffffffffffffffffffffffffffffffffffffffff168573ffffffffffffffffffffffffffffffffffffffff16148061099e575061099d85610998610a6e565b6108bc565b5b6109dd576040517f08c379a00000000000000000000000000000000000000000000000000000000081526004016109d4906121dc565b60405180910390fd5b6109ea8585858585610d8a565b5050505050565b600080823b905060008111915050919050565b60007f01ffc9a7000000000000000000000000000000000000000000000000000000007bffffffffffffffffffffffffffffffffffffffffffffffffffffffff1916827bffffffffffffffffffffffffffffffffffffffffffffffffffffffff1916149050919050565b600033905090565b8151835114610aba576040517f08c379a0000000000000000000000000000000000000000000000000000000008152600401610ab19061226e565b60405180910390fd5b600073ffffffffffffffffffffffffffffffffffffffff168473ffffffffffffffffffffffffffffffffffffffff161415610b2a576040517f08c379a0000000000000000000000000000000000000000000000000000000008152600401610b2190612300565b60405180910390fd5b6000610b34610a6e565b9050610b4481878787878761100c565b60005b8451811015610cf5576000858281518110610b6557610b64611f34565b5b602002602001015190506000858381518110610b8457610b83611f34565b5b60200260200101519050600080600084815260200190815260200160002060008b73ffffffffffffffffffffffffffffffffffffffff1673ffffffffffffffffffffffffffffffffffffffff16815260200190815260200160002054905081811015610c25576040517f08c379a0000000000000000000000000000000000000000000000000000000008152600401610c1c90612392565b60405180910390fd5b81810360008085815260200190815260200160002060008c73ffffffffffffffffffffffffffffffffffffffff1673ffffffffffffffffffffffffffffffffffffffff168152602001908152602001600020819055508160008085815260200190815260200160002060008b73ffffffffffffffffffffffffffffffffffffffff1673ffffffffffffffffffffffffffffffffffffffff1681526020019081526020016000206000828254610cda91906123b2565b9250508190555050505080610cee90611f92565b9050610b47565b508473ffffffffffffffffffffffffffffffffffffffff168673ffffffffffffffffffffffffffffffffffffffff168273ffffffffffffffffffffffffffffffffffffffff167f4a39dc06d4c0dbc64b70af90fd698a233a518aa5d07e595d983b8c0526c8f7fb8787604051610d6c929190612408565b60405180910390a4610d82818787878787611014565b505050505050565b600073ffffffffffffffffffffffffffffffffffffffff168473ffffffffffffffffffffffffffffffffffffffff161415610dfa576040517f08c379a0000000000000000000000000000000000000000000000000000000008152600401610df190612300565b60405180910390fd5b6000610e04610a6e565b9050610e24818787610e15886111ec565b610e1e886111ec565b8761100c565b600080600086815260200190815260200160002060008873ffffffffffffffffffffffffffffffffffffffff1673ffffffffffffffffffffffffffffffffffffffff16815260200190815260200160002054905083811015610ebb576040517f08c379a0000000000000000000000000000000000000000000000000000000008152600401610eb290612392565b60405180910390fd5b83810360008087815260200190815260200160002060008973ffffffffffffffffffffffffffffffffffffffff1673ffffffffffffffffffffffffffffffffffffffff168152602001908152602001600020819055508360008087815260200190815260200160002060008873ffffffffffffffffffffffffffffffffffffffff1673ffffffffffffffffffffffffffffffffffffffff1681526020019081526020016000206000828254610f7091906123b2565b925050819055508573ffffffffffffffffffffffffffffffffffffffff168773ffffffffffffffffffffffffffffffffffffffff168373ffffffffffffffffffffffffffffffffffffffff167fc3d58168c5ae7397731d063d5bbf3d657854427343f4c083240f7aacaa2d0f628888604051610fed92919061243f565b60405180910390a4611003828888888888611266565b50505050505050565b505050505050565b6110338473ffffffffffffffffffffffffffffffffffffffff166109f1565b156111e4578373ffffffffffffffffffffffffffffffffffffffff1663bc197c8187878686866040518663ffffffff1660e01b81526004016110799594939291906124cc565b6020604051808303816000875af19250505080156110b557506040513d601f19601f820116820180604052508101906110b29190612549565b60015b61115b576110c1612583565b806308c379a0141561111e57506110d66125a5565b806110e15750611120565b806040517f08c379a000000000000000000000000000000000000000000000000000000000815260040161111591906116d1565b60405180910390fd5b505b6040517f08c379a0000000000000000000000000000000000000000000000000000000008152600401611152906126ad565b60405180910390fd5b63bc197c8160e01b7bffffffffffffffffffffffffffffffffffffffffffffffffffffffff1916817bffffffffffffffffffffffffffffffffffffffffffffffffffffffff1916146111e2576040517f08c379a00000000000000000000000000000000000000000000000000000000081526004016111d99061273f565b60405180910390fd5b505b505050505050565b60606000600167ffffffffffffffff81111561120b5761120a6116f8565b5b6040519080825280602002602001820160405280156112395781602001602082028036833780820191505090505b509050828160008151811061125157611250611f34565b5b60200260200101818152505080915050919050565b6112858473ffffffffffffffffffffffffffffffffffffffff166109f1565b15611436578373ffffffffffffffffffffffffffffffffffffffff1663f23a6e6187878686866040518663ffffffff1660e01b81526004016112cb95949392919061275f565b6020604051808303816000875af192505050801561130757506040513d601f19601f820116820180604052508101906113049190612549565b60015b6113ad57611313612583565b806308c379a0141561137057506113286125a5565b806113335750611372565b806040517f08c379a000000000000000000000000000000000000000000000000000000000815260040161136791906116d1565b60405180910390fd5b505b6040517f08c379a00000000000000000000000000000000000000000000000000000000081526004016113a4906126ad565b60405180910390fd5b63f23a6e6160e01b7bffffffffffffffffffffffffffffffffffffffffffffffffffffffff1916817bffffffffffffffffffffffffffffffffffffffffffffffffffffffff191614611434576040517f08c379a000000000000000000000000000000000000000000000000000000000815260040161142b9061273f565b60405180910390fd5b505b505050505050565b6000604051905090565b600080fd5b600080fd5b600073ffffffffffffffffffffffffffffffffffffffff82169050919050565b600061147d82611452565b9050919050565b61148d81611472565b811461149857600080fd5b50565b6000813590506114aa81611484565b92915050565b6000819050919050565b6114c3816114b0565b81146114ce57600080fd5b50565b6000813590506114e0816114ba565b92915050565b600080604083850312156114fd576114fc611448565b5b600061150b8582860161149b565b925050602061151c858286016114d1565b9150509250929050565b61152f816114b0565b82525050565b600060208201905061154a6000830184611526565b92915050565b60007fffffffff0000000000000000000000000000000000000000000000000000000082169050919050565b61158581611550565b811461159057600080fd5b50565b6000813590506115a28161157c565b92915050565b6000602082840312156115be576115bd611448565b5b60006115cc84828501611593565b91505092915050565b60008115159050919050565b6115ea816115d5565b82525050565b600060208201905061160560008301846115e1565b92915050565b60006020828403121561162157611620611448565b5b600061162f848285016114d1565b91505092915050565b600081519050919050565b600082825260208201905092915050565b60005b83811015611672578082015181840152602081019050611657565b83811115611681576000848401525b50505050565b6000601f19601f8301169050919050565b60006116a382611638565b6116ad8185611643565b93506116bd818560208601611654565b6116c681611687565b840191505092915050565b600060208201905081810360008301526116eb8184611698565b905092915050565b600080fd5b7f4e487b7100000000000000000000000000000000000000000000000000000000600052604160045260246000fd5b61173082611687565b810181811067ffffffffffffffff8211171561174f5761174e6116f8565b5b80604052505050565b600061176261143e565b905061176e8282611727565b919050565b600067ffffffffffffffff82111561178e5761178d6116f8565b5b602082029050602081019050919050565b600080fd5b60006117b76117b284611773565b611758565b905080838252602082019050602084028301858111156117da576117d961179f565b5b835b8181101561180357806117ef88826114d1565b8452602084019350506020810190506117dc565b5050509392505050565b600082601f830112611822576118216116f3565b5b81356118328482602086016117a4565b91505092915050565b600080fd5b600067ffffffffffffffff82111561185b5761185a6116f8565b5b61186482611687565b9050602081019050919050565b82818337600083830152505050565b600061189361188e84611840565b611758565b9050828152602081018484840111156118af576118ae61183b565b5b6118ba848285611871565b509392505050565b600082601f8301126118d7576118d66116f3565b5b81356118e7848260208601611880565b91505092915050565b600080600080600060a0868803121561190c5761190b611448565b5b600061191a8882890161149b565b955050602061192b8882890161149b565b945050604086013567ffffffffffffffff81111561194c5761194b61144d565b5b6119588882890161180d565b935050606086013567ffffffffffffffff8111156119795761197861144d565b5b6119858882890161180d565b925050608086013567ffffffffffffffff8111156119a6576119a561144d565b5b6119b2888289016118c2565b9150509295509295909350565b600067ffffffffffffffff8211156119da576119d96116f8565b5b602082029050602081019050919050565b60006119fe6119f9846119bf565b611758565b90508083825260208201905060208402830185811115611a2157611a2061179f565b5b835b81811015611a4a5780611a36888261149b565b845260208401935050602081019050611a23565b5050509392505050565b600082601f830112611a6957611a686116f3565b5b8135611a798482602086016119eb565b91505092915050565b60008060408385031215611a9957611a98611448565b5b600083013567ffffffffffffffff811115611ab757611ab661144d565b5b611ac385828601611a54565b925050602083013567ffffffffffffffff811115611ae457611ae361144d565b5b611af08582860161180d565b9150509250929050565b600081519050919050565b600082825260208201905092915050565b6000819050602082019050919050565b611b2f816114b0565b82525050565b6000611b418383611b26565b60208301905092915050565b6000602082019050919050565b6000611b6582611afa565b611b6f8185611b05565b9350611b7a83611b16565b8060005b83811015611bab578151611b928882611b35565b9750611b9d83611b4d565b925050600181019050611b7e565b5085935050505092915050565b60006020820190508181036000830152611bd28184611b5a565b905092915050565b611be3816115d5565b8114611bee57600080fd5b50565b600081359050611c0081611bda565b92915050565b60008060408385031215611c1d57611c1c611448565b5b6000611c2b8582860161149b565b9250506020611c3c85828601611bf1565b9150509250929050565b60008060408385031215611c5d57611c5c611448565b5b6000611c6b8582860161149b565b9250506020611c7c8582860161149b565b9150509250929050565b600080600080600060a08688031215611ca257611ca1611448565b5b6000611cb08882890161149b565b9550506020611cc18882890161149b565b9450506040611cd2888289016114d1565b9350506060611ce3888289016114d1565b925050608086013567ffffffffffffffff811115611d0457611d0361144d565b5b611d10888289016118c2565b9150509295509295909350565b7f455243313135353a2062616c616e636520717565727920666f7220746865207a60008201527f65726f2061646472657373000000000000000000000000000000000000000000602082015250565b6000611d79602b83611643565b9150611d8482611d1d565b604082019050919050565b60006020820190508181036000830152611da881611d6c565b9050919050565b7f4e487b7100000000000000000000000000000000000000000000000000000000600052602260045260246000fd5b60006002820490506001821680611df657607f821691505b60208210811415611e0a57611e09611daf565b5b50919050565b7f455243313135353a207472616e736665722063616c6c6572206973206e6f742060008201527f6f776e6572206e6f7220617070726f7665640000000000000000000000000000602082015250565b6000611e6c603283611643565b9150611e7782611e10565b604082019050919050565b60006020820190508181036000830152611e9b81611e5f565b9050919050565b7f455243313135353a206163636f756e747320616e6420696473206c656e67746860008201527f206d69736d617463680000000000000000000000000000000000000000000000602082015250565b6000611efe602983611643565b9150611f0982611ea2565b604082019050919050565b60006020820190508181036000830152611f2d81611ef1565b9050919050565b7f4e487b7100000000000000000000000000000000000000000000000000000000600052603260045260246000fd5b7f4e487b7100000000000000000000000000000000000000000000000000000000600052601160045260246000fd5b6000611f9d826114b0565b91507fffffffffffffffffffffffffffffffffffffffffffffffffffffffffffffffff821415611fd057611fcf611f63565b5b600182019050919050565b7f455243313135353a2073657474696e6720617070726f76616c2073746174757360008201527f20666f722073656c660000000000000000000000000000000000000000000000602082015250565b6000612037602983611643565b915061204282611fdb565b604082019050919050565b600060208201905081810360008301526120668161202a565b9050919050565b7f4e487b7100000000000000000000000000000000000000000000000000000000600052601260045260246000fd5b60006120a7826114b0565b91506120b2836114b0565b9250826120c2576120c161206d565b5b828206905092915050565b7f4f6e6c7920616363657074696e67207468652066756c6c207072696365000000600082015250565b6000612103601d83611643565b915061210e826120cd565b602082019050919050565b60006020820190508181036000830152612132816120f6565b9050919050565b6000612144826114b0565b915061214f836114b0565b92508261215f5761215e61206d565b5b828204905092915050565b7f455243313135353a2063616c6c6572206973206e6f74206f776e6572206e6f7260008201527f20617070726f7665640000000000000000000000000000000000000000000000602082015250565b60006121c6602983611643565b91506121d18261216a565b604082019050919050565b600060208201905081810360008301526121f5816121b9565b9050919050565b7f455243313135353a2069647320616e6420616d6f756e7473206c656e6774682060008201527f6d69736d61746368000000000000000000000000000000000000000000000000602082015250565b6000612258602883611643565b9150612263826121fc565b604082019050919050565b600060208201905081810360008301526122878161224b565b9050919050565b7f455243313135353a207472616e7366657220746f20746865207a65726f20616460008201527f6472657373000000000000000000000000000000000000000000000000000000602082015250565b60006122ea602583611643565b91506122f58261228e565b604082019050919050565b60006020820190508181036000830152612319816122dd565b9050919050565b7f455243313135353a20696e73756666696369656e742062616c616e636520666f60008201527f72207472616e7366657200000000000000000000000000000000000000000000602082015250565b600061237c602a83611643565b915061238782612320565b604082019050919050565b600060208201905081810360008301526123ab8161236f565b9050919050565b60006123bd826114b0565b91506123c8836114b0565b9250827fffffffffffffffffffffffffffffffffffffffffffffffffffffffffffffffff038211156123fd576123fc611f63565b5b828201905092915050565b600060408201905081810360008301526124228185611b5a565b905081810360208301526124368184611b5a565b90509392505050565b60006040820190506124546000830185611526565b6124616020830184611526565b9392505050565b61247181611472565b82525050565b600081519050919050565b600082825260208201905092915050565b600061249e82612477565b6124a88185612482565b93506124b8818560208601611654565b6124c181611687565b840191505092915050565b600060a0820190506124e16000830188612468565b6124ee6020830187612468565b81810360408301526125008186611b5a565b905081810360608301526125148185611b5a565b905081810360808301526125288184612493565b90509695505050505050565b6000815190506125438161157c565b92915050565b60006020828403121561255f5761255e611448565b5b600061256d84828501612534565b91505092915050565b60008160e01c9050919050565b600060033d11156125a25760046000803e61259f600051612576565b90505b90565b600060443d10156125b557612638565b6125bd61143e565b60043d036004823e80513d602482011167ffffffffffffffff821117156125e5575050612638565b808201805167ffffffffffffffff8111156126035750505050612638565b80602083010160043d038501811115612620575050505050612638565b61262f82602001850186611727565b82955050505050505b90565b7f455243313135353a207472616e7366657220746f206e6f6e204552433131353560008201527f526563656976657220696d706c656d656e746572000000000000000000000000602082015250565b6000612697603483611643565b91506126a28261263b565b604082019050919050565b600060208201905081810360008301526126c68161268a565b9050919050565b7f455243313135353a204552433131353552656365697665722072656a6563746560008201527f6420746f6b656e73000000000000000000000000000000000000000000000000602082015250565b6000612729602883611643565b9150612734826126cd565b604082019050919050565b600060208201905081810360008301526127588161271c565b9050919050565b600060a0820190506127746000830188612468565b6127816020830187612468565b61278e6040830186611526565b61279b6060830185611526565b81810360808301526127ad8184612493565b9050969550505050505056fea264697066735822122096a41fcde04e3f55e968b4b05a1703ecfde1077d0816f803edd63bdca480f35464736f6c634300080a0033",
  "immutableReferences": {},
  "source": "pragma solidity ^0.8.0;\n\nimport \"@openzeppelin/contracts/token/ERC1155/ERC1155.sol\";\n\ncontract Tomatoken is ERC1155 {\n\n\tuint public constant TOMATOKENS = 0;\n\tuint public constant TOMATOKEN_PRICE_IN_WEI = 10**12;\n\n\tconstructor() ERC1155(\"\") {\n\t\t// owner = msg.sender;\n\t\t_mint(address(this), TOMATOKENS, 10**18, \"\");\n\t}\n\n\tfunction buyTokens() public payable {\n\t\trequire(uint(msg.value) % TOMATOKEN_PRICE_IN_WEI == 0, \"Only accepting the full price\");\n\t\tuint amountOfTomatokens = msg.value / TOMATOKEN_PRICE_IN_WEI;\n\t\t_safeTransferFrom(address(this),  msg.sender, TOMATOKENS, amountOfTomatokens, \"\");\n\t}\n}\n\n\n",
  "sourcePath": "/Users/lucha/code/tomatoken/contracts/Tomatoken.sol",
  "compiler": {
    "name": "solc",
    "version": "0.8.10+commit.fc410830.Emscripten.clang"
  },
  "schemaVersion": "3.4.3",
  "updatedAt": "2021-11-19T16:41:26.474Z",
  "networkType": "ethereum",
  "devdoc": {
    "kind": "dev",
    "methods": {
      "balanceOf(address,uint256)": {
        "details": "See {IERC1155-balanceOf}. Requirements: - `account` cannot be the zero address."
      },
      "balanceOfBatch(address[],uint256[])": {
        "details": "See {IERC1155-balanceOfBatch}. Requirements: - `accounts` and `ids` must have the same length."
      },
      "isApprovedForAll(address,address)": {
        "details": "See {IERC1155-isApprovedForAll}."
      },
      "safeBatchTransferFrom(address,address,uint256[],uint256[],bytes)": {
        "details": "See {IERC1155-safeBatchTransferFrom}."
      },
      "safeTransferFrom(address,address,uint256,uint256,bytes)": {
        "details": "See {IERC1155-safeTransferFrom}."
      },
      "setApprovalForAll(address,bool)": {
        "details": "See {IERC1155-setApprovalForAll}."
      },
      "supportsInterface(bytes4)": {
        "details": "See {IERC165-supportsInterface}."
      },
      "uri(uint256)": {
        "details": "See {IERC1155MetadataURI-uri}. This implementation returns the same URI for *all* token types. It relies on the token type ID substitution mechanism https://eips.ethereum.org/EIPS/eip-1155#metadata[defined in the EIP]. Clients calling this function must replace the `\\{id\\}` substring with the actual token type ID."
      }
    },
    "version": 1
  },
  "userdoc": {
    "kind": "user",
    "methods": {},
    "version": 1
  }
}